:020000040800F2
:100000007817002029230008C5010008C70100084F
:1000100000000000000000000000000000000000E0
:10002000000000000000000000000000C9010008FE
:100030000000000000000000CB010008CD01000816
:100040003B2300083B2300083B2300083B23000818
:100050003B230008870C00083B2300083B230008D3
:100060003B2300083B2300083B2300083B230008F8
:100070003B2300083B2300083B2300083B230008E8
:100080003B2300083B230008000000003B2300083E
:100090003B230008CF0100083B2300083B23000856
:1000A0003B2300083B2300083B2300083B230008B8
:1000B0003B230008000000003B2300080000000074
:1000C00000F002F800F03EF80CA030C80838241800
:1000D0002D18A246671EAB4654465D46AC4201D180
:1000E00000F030F87E460F3E0FCCB6460126334274
:1000F00000D0FB1AA246AB4633431847504C0000D1
:10010000704C0000103A02D378C878C1FAD8520770
:1001100001D330C830C101D504680C6070470000BD
:100120000023002400250026103A01D378C1FBD813
:10013000520700D330C100D50B6070471FB51FBDFB
:1001400010B510BD04F0F4FC1146FFF7F7FF00F006
:1001500025F804F00CFD03B4FFF7F2FF03BC04F034
:1001600013FD000070B505460C46164602E00FCCA4
:100170000FC5103E102EFAD2082E02D303CC03C5B1
:10018000083E042E07D301CC01C5361F03E02178B9
:100190002970641C6D1C761EF9D270BD10B501F07B
:1001A00055FB02F0B9F800F01AFE00F07BFD0022CA
:1001B0000121034802F079F802F05CF8002010BD3C
:1001C000310300087047FEE770477047704710B56D
:1001D000064C0121204603F0B3F9002805D002F0B7
:1001E00096F80121204603F0B7F910BD0044014004
:1001F00010B5474801680122114301604168454A32
:10020000114041600168444A1140016001680122C7
:1002100092049143016041683F221204914341607E
:10022000C16A09090901C162016BFF22543291437D
:100230000163416B4908490041630021816000F07E
:100240002EF810BD70B5324D69680C20014033485E
:10025000334C03D0042901D0082901D0206014E0D8
:100260006A686968012392021B04160F1940B61CC4
:10027000002907D0E96A0907090F491C04F0A8FB07
:100280007043EBE727484643266068682449000628
:10029000000F091D085C2168C140216070BD38B5A0
:1002A00000201B4C00902068012109048843206035
:1002B0001D480168102211430160016801221143A9
:1002C0000160606860606068606060683F21090488
:1002D0008843606060680521C904084360600520A8
:1002E00002F0C0F920680121090608432060206857
:1002F0008001FCD560688008800060606068022131
:100300000843606060680007800F0228FAD138BD9A
:10031000001002400CB8FFF8FFFFF6FE00127A0052
:100320000000002000093D00002002407047704797
:1003300010B501F012FE01F087FEF8221C491D489D
:1003400001F0CCFA40211C4801F064FB1A485038F7
:1003500001F017FB06220121184801F0A6FF072231
:100360000121174801F0A1FF02220121154801F0E7
:100370009CFF05220121144801F097FF042201216E
:10038000124801F092FF01221146114801F08DFF41
:10039000032201210F4801F088FF002001F09BFF9C
:1003A00010BD10B532210A2001F09EFF10BD0000E3
:1003B000F3050020A003002060030020F3040008E0
:1003C000A70B0008370E00086F0900085D0600083B
:1003D000D90F0008AD050008FE48012101704170E9
:1003E0008170C1700021017141718171018341836C
:1003F0008183C183018441848184C18401854185D5
:10040000C171017241728172C1720173704710B57E
:1004100000224378012104E0445CA218491C92B2F6
:1004200089B29942F8D3110AC154C018427010BD64
:10043000F8B5E94DE94801F0BFFA86B20027E54C6E
:1004400053E0E64801F0AEFA217C002942D0617CFD
:1004500000292ED0A17C6854491CA174E07C401E68
:100460000006000EE0743ED100226978012003E00E
:100470002B5C9A1892B2401C8842F9DB685C6918C0
:1004800049780002401890420BD1FF22D2492D3208
:100490008818FFF767FED24801F073F9022001F0D7
:1004A000FEF92774FF2167742D31CB4804F08EFAD2
:1004B00019E0FF22411E2B32914208D2C64AA17C8C
:1004C0005054E07401206074491CA1740BE027743F
:1004D000677408E0FF2806D1BF4908700121217424
:1004E0006774A174E774761EB6B2002EA9D10120FC
:1004F000F8BD10B5FF24CCB02D342146684604F079
:1005000065FAB848007800280DD1B44822466946FB
:10051000903001F019FA010005D0684601F0F3FAB5
:100520001E2001F0BCF91E21062001F0DDFE4CB0BA
:1005300010BD70B5A74A012906D0022908D00329A9
:1005400012D0062909D114E0A24952633C3103E0DC
:10055000A049491C51633F319164516B00240D78CF
:10056000A14B012D0AD00DE09A49891C51634231FB
:10057000F2E79849C91C51633531EDE7966C1D6867
:1005800035600C701B6801251E189E4202D200289F
:1005900005D009E0966C36689B1B834204D30D702E
:1005A000906C0460012070BD002070BD70B58D4856
:1005B000007800284DD18D4D2878012829D10220BE
:1005C00001F0AAFC0024FF26F53600226421012058
:1005D00001F063FD00226421022001F05EFD30463F
:1005E00001F02DF932226421012001F056FD322262
:1005F0006421022001F051FD304601F020F9FFF79F
:1006000096FE641CE4B2052CDFD300F0E8FB00F09A
:1006100049FB2878022809D16E4CA07B0A2809D012
:10062000022001F079FCA07B401CA07328780328ED
:100630000CD00EE0002001F06FFCE07B0A2802D015
:10064000401CE073F2E70020A073FAE7012001F0FC
:1006500063FC3221032001F047FE70BD10B500F0AD
:10066000ADFE5C4A5F495075097800291AD1917D29
:100670000023884215D0117D052902D0491C11752F
:1006800010E090751375FFF7A7FE537300226421E5
:10069000012001F002FD00226421022001F0FDFC96
:1006A00000E013751421042001F01EFE10BDF8B502
:1006B000484C0E460746012804D0022F0FD0032FC6
:1006C0001AD123E04348001DE06416302065801DE8
:1006D0006065801DA0651F38E065C01C0BE03D48CB
:1006E000401DE06417302065801D6065801DA06599
:1006F0002038E065C01C20663D48002500780028B1
:1007000011D0E06C0078012823D034E03148801DFE
:10071000E06418302065801D6065801DA06521386B
:10072000E065C01CE7E72F49012008706573E16CA4
:1007300000220870206D64210580606D0580A06D29
:100740000580E06D0570206E0570384601F0A5FC4F
:10075000F8BD206E31780078491E884210DDC00057
:100760008019C1780022384601F097FCE16C052021
:100770000870206E0570E06C007802280AD03DE019
:10078000C00080190279C178384601F086FCE16C1E
:1007900002200870206E7D210078C900C0008019F9
:1007A000407948433946FFF7C4FE002822D0E06D67
:1007B00000220178491C0170206D0580E16C032046
:1007C0000870206E0078C0008019C178384601F0AA
:1007D00064FC13E014000020B80000201003002087
:1007E000E40100207C000020A00000207F00002009
:1007F0007D000020206D0188491C0180E06C84464A
:100800000078032821D1206EE16D00780A78C000BD
:10081000801983799A4204D10420624610700D70C9
:1008200013E0C0797D21C90048433946FFF781FEB6
:1008300000280AD0206E0078C00080190279C178A3
:10084000384601F02AFC022023E0E06C00780428FE
:1008500000D07DE7206E7D210078C900C00080199E
:10086000007A48433946FFF764FE0028F1D006209D
:100870006073E06D00220570206E0078C000801962
:10088000C178384601F009FC216E0878401C0870D8
:100890000120E16C0870F8BD10B50022CA4BFF21A1
:1008A000B5319C5C8454521C8A42FADB01466D22AD
:1008B000C64800F0ECFB10BD01780022F92920D8D1
:1008C0000021521C92B283189B78521C92B2012BC9
:1008D00017D883189B78521C92B2002B11D0831822
:1008E0009B785B1F602B0CD2521C92B283189B78B2
:1008F000521C92B2002B04D083189B785B1EFA2BFB
:1009000000D3C9E7D21C491C92B23629D9DB704703
:10091000F0B5002501232C46E60072185278012A12
:100920000BD10022B718CF5DC7545B1C521CD2B24A
:10093000DBB2082AF6D36D1CEDB2641C062CEBDB8F
:100940000570F0BD70B50024A14DA24E01E00A2C47
:100950000AD0304600F0C0FC81B2E985641C0A3937
:10096000E4B2BF29F3D270BD3C20E88570BDF0B57C
:100970009948EFB00078002878D1954C974F607B6C
:1009800001260025002804D0052818D0012845D0CC
:100990008CE06D208100009001A804F017F801A9F7
:1009A0008A48009A00F09AFCFF22B53201A98B48D0
:1009B000FFF7D8FB8948FFF77FFF052060733121DF
:1009C000874804F003F886483121313003F0FCFFFA
:1009D00083483121623003F0F7FF607D012804D0A5
:1009E000022806D003280AD131E09022B91C6846BB
:1009F00003E07A4990229231684603F07FFF69460E
:100A00007748FFF785FF76480CA93130FFF780FF64
:100A1000734818A96230FFF77BFF6673714800784E
:100A2000002823D0A08D0A2148436F49884213D162
:100A30006948A58506706573002001F06DFA1920DC
:100A400000F05DFD00F0CBF900F02CF92EE06449D8
:100A5000902292396846D0E7387800F0ADFA216BE1
:100A6000884204D9A08D401CA0851FE093E0A58595
:100A7000A02000F0A1FA216B884202D2042060730A
:100A800051E0387800F098FA216B88420ED8A02007
:100A900000F092FA216B884208D3172000F02FFD56
:100AA00003206073A585E670A56302E0607B0328E0
:100AB00014D14E48007800280ED078787D21C900E6
:100AC00048430621FFF735FD002807D00620607354
:100AD00026716671A6710AE025835CE0607B0628BA
:100AE00014D12079052802D16079052812D0A020E0
:100AF00000F062FA216B8842C0D339490120FFF728
:100B0000D6FD374902203131FFF7D1FD607B042843
:100B100009D035E0A572E5722573072060731220B5
:100B200000F0EDFCF2E7162000F0E9FC022001F0F5
:100B3000F3F9002700226421012001F0AEFA00221F
:100B40006421022001F0A9FAFF20F53000F077FEC1
:100B500032226421012001F0A0FA32226421022015
:100B600001F09BFAFF20F53000F069FEFFF7DFFB94
:100B70007F1CFFB2052FDDD300F031F900F092F8B1
:100B8000607B072807D100F03CF9194908706573AC
:100B900026716671A671FFF7CAFB0A21052001F0D4
:100BA000A3FB6FB0F0BD10B50B480078002805D14D
:100BB0000A489C3800F007FFFFF73AFC6421072041
:100BC00001F092FB10BD0000964B00080078000871
:100BD00014000020006800087C000020AC03002006
:100BE000600500208400002060EA00007D000020F5
:100BF0007F00002030B5232085B00121400401F0A2
:100C0000FFFD0121480401F00DFE0121084601F01D
:100C100000FE01240025684600940571C57102217B
:100C2000417109206946C00601F0C1FB0021084658
:100C300003F014FA6846029405730C21417384731F
:100C400002A803F083F90521684601744474847492
:100C500004A801F039FE05B030BD10B50924E40642
:100C60000121204601F0F1FB002801D0002010BD39
:100C70000A2000F014FE0121204601F0E6FB0028C6
:100C8000EED1012010BD10B5012003F0A9F9002814
:100C900004D0B7480221817000210171012003F0C6
:100CA0009CF910BD10B5B3490420FFF73FFBB249D2
:100CB0000020086000F0CAFD01F02EFBFFF798FA53
:100CC000FFF736FB10BDF0B503208FB001214004C3
:100CD00001F096FD12200C90032508A8057500244C
:100CE000C47509200CA9C00601F061FB0021A348CE
:100CF00002F043FDA24E0021304603F0E0F800214F
:100D0000304603F030F80C200490684645750475B1
:100D10000226C675092004A9C00601F048FB9748C1
:100D20000021503002F029FD944800213C3002F0AF
:100D300024FD0021934801F092FE68020690684667
:100D400045770477C477092006A9C00601F02FFB78
:100D50002020089008A845710471C471014609203B
:100D6000C00601F024FBC0200090684645710127B1
:100D700007718471C67109206946C00601F017FB2E
:100D800008A80A964573077384736846C6710AA952
:100D90007D4801F00CFB2E026846029645730773EE
:100DA0008473C77302A9784801F001FB3146764885
:100DB00001F05DFB0FB0F0BD00206D4901224870CD
:100DC00008718A70714BC8701870714B1870714B34
:100DD0001870714B1A700A7070490870704710B51E
:100DE000FFF7EAFFFFF7F8FAFFF704FFFFF76BFFE3
:100DF0000121080701F016FD0121084602F02EFD31
:100E000010BD10B5664867490088884204D2152095
:100E100000F075FB012010BD6249634A4942411848
:100E2000914201D2022010BD6049884201D30320C3
:100E300010BD002010BDF8B54D4CA078002806D19B
:100E4000132000F05CFBFFF7CAFFFFF72BFFA07831
:100E500001260025022825D109200121C00601F024
:100E6000F4FA002804D02571607800281ED019E01B
:100E70002079052802D0401C207113E0257160788C
:100E8000002808D0002145486170002905D0257050
:100E90000321A17003E00121F5E72670A57005701C
:100EA000FFF79AFAA078032808D05CE0BFF34F8FD1
:100EB00040493F48C860BFF34F8FFEE73848394983
:100EC0000088FF27F537884225D93849884202D95A
:100ED000012001F021F8112000F011FB50226421C3
:100EE000012001F0DAF850226421022001F0D5F847
:100EF000384600F0A4FC00226421012001F0CDF866
:100F000000226421022001F0C8F8A6702570FFF7C6
:100F100078FFE07027E0022000F0FEFF00250022AD
:100F20006421012001F0B9F800226421022001F0BF
:100F3000B4F8384600F083FC32226421012001F02D
:100F4000ACF832226421022001F0A7F8384600F004
:100F500076FCFFF7ECF96D1C052DE0DB2670FFF742
:100F60003EFFFFF79FFE1421022001F0BDF9F8BDFE
:100F70007C000020E2040000A000002008000240E5
:100F800000240140004400400004004822000020EA
:100F9000230000207800002079000020210000209C
:100FA00094000020BB0B000022020000DD0D0000B9
:100FB0000400FA0500ED00E0010900070A22000F15
:100FC00051430818144910B54843114603F000FD79
:100FD00012494968401810BD10B5104C60780228BD
:100FE00002D0002809D00CE0207800280ED000F0B4
:100FF0009FFE0B4908600020607000F07DFE02201B
:1010000060700F21012001F06FF910BD00F090FE1B
:10101000606001202070EEE7662B00008400002055
:101020004400002000B5CBB0FF2269460A700822B8
:101030004A7000228A700322CA700871020A4A713B
:10104000020C8A71000EC8716846FFF7E0F9694624
:101050004A78F648921C00F057FC4BB000BDF8B53A
:10106000FF270546B5373946F14803F0ADFCF14E90
:101070000020EF4C30803946204603F0A5FC28794B
:10108000207068796070217808183080F8BDF8B554
:1010900016460F460024054602F02EFC352002F0CD
:1010A00034FE284602F059FCFF2E12D913E0A000AE
:1010B000395CC0194278120289188278C07812040B
:1010C000000610180918284602F079FC641CA4B226
:1010D0002D1DB442EBD302F018FC2046F8BDF0B54C
:1010E000FF268336D24DD34C8DB0112936D012292C
:1010F00049D013295FD0212975D022296FD0232907
:101100006ED031296DD032296CD0332924D1071DFE
:10111000A8190C903021684603F058FC00206A465C
:10112000397811542388401CC9187F1C218030282D
:10113000F6DB302269460C9803F0E0FB2088A91901
:10114000020A20310A7448746D22B949BA48FFF77F
:101150009EFFBA49012008700DB0F0BD061D302178
:101160006846AD1C03F032FC0021684632784254D8
:101170002388491CD218761C22803029F6DB0146D0
:101180003022284614E0AA4E051D3236302168462A
:1011900003F01CFC002168462A7842542388491C2D
:1011A000D2186D1C22803029F6DB3022014666E021
:1011B00003F0A4FBD0E79E4E051D62363021684641
:1011C00003F004FC002168462A7842542388491C15
:1011D000D2186D1C22803029F6DBE6E703E015E02B
:1011E00027E039E04DE0924E051D923630216846E9
:1011F00003F0ECFB002168462A7842542388491CFE
:10120000D2186D1C22803029F6DBCEE7884E051DF2
:10121000C2363021684603F0D9FB002168462A789F
:1012200042542388491CD2186D1C22803029F6DBD9
:10123000BBE77F4E051DF2363021684603F0C6FB42
:10124000002168462A7842542388491CD2186D1C14
:1012500022803029F6DBA8E7051D794E302168464B
:1012600003F0B4FB00216A46287850542388491CB7
:10127000C0186D1C20803029F6DB302269463046CC
:1012800096E76F4E051D30363021684603F09EFB11
:10129000002168462A7842542388491CD2186D1CC4
:1012A00022803029F6DB80E77CB5FF21684601709B
:1012B00005214170002484700821604DC170297897
:1012C0000171FFF7A4F86846427869465748921CB6
:1012D00000F01AFB2C707CBD0068704730B500230D
:1012E000002907D004E09D0010C85B1C4C519BB244
:1012F0009342F8D330BD30B5FFB06D24BAB0A5002D
:1013000029464BA803F062FB22464BA94A48FFF747
:10131000E5FF2A464BA9464803F0F0FA4448FFF798
:10132000CBFAFF2069460870F620487000208870CC
:101330000920C8703E4802780A7142784A71022139
:101340006A46801C03785418401C491C2371F229FA
:10135000F8DB1046FFF75BF8684642786946334889
:10136000921C00F0D1FA7FB03AB030BD30B5CBB0AE
:10137000FF2168460170C4214170002181700A215B
:10138000C1702F49F2203039FF236A46B333141855
:101390000D78FF3C013C401C491CA5749842F6DBCB
:1013A0001046FFF734F86846427869461F48921C99
:1013B00000F0AAFA4BB030BD0078704721482249AE
:1013C0004088884201D301207047AF218900401A2C
:1013D0001E49884201D2022070470320704788428C
:1013E00001D9401A00E0081A80B27047F7B5694683
:1013F000C8884E880A790D78801B511B00D5494258
:10140000002800DA404203F0EDFA84B269464889C8
:10141000097A801B491B00D54942002800DA404266
:1014200003F0E0FA80B220184008FEBDA0030020BF
:10143000EB0600207A000020007800088C000020D5
:101440000D0800209400002072060000B603000082
:10145000F8B516460F460546002402F04DFA352031
:1014600002F053FC284602F078FA07E0A000395851
:10147000284602F0A4FA641CA4B22D1DB442F5D390
:1014800002F043FA2046F8BDFEB50020E24C009081
:1014900001900290032269462046FFF71FFF2514A2
:1014A000A6142946FF22DD4803F069FA05E032461A
:1014B000DA492046FFF7CCFF64190198A042F6D222
:1014C000FEBD70B5D44DD64C2868A04216D002F0AF
:1014D00013FA352002F019FC284602F03EFA2146A4
:1014E000284602F06CFA2146281D02F068FACA4824
:1014F0000021083002F063FA02F007FA70BDF0B57F
:1015000085B007460020029003900490032202A9B0
:10151000C148FFF7E3FEC348039C844240D28614CF
:10152000B5002946FF22BD4803F029FA3246BB49DF
:101530002046FFF7D3FE01A9684600F037FE684653
:10154000C0780004C119684640780006081804995C
:1015500009064A0DB1498850684683788079511848
:1015600000061B18684640790704684600790002A7
:101570003818181848600498401C04900006000EA3
:1015800004D1A7480290039840190390032202A9AE
:10159000A148FFF75DFF3246A0492046FFF758FFFC
:1015A00005B0F0BD0EB5002000900190029003221E
:1015B00069469948FFF792FE02980EBD1CB5FF21BF
:1015C0006846017005214170002181706621C1705B
:1015D00001210171FEF71BFF684642786946924877
:1015E000921C00F091F91CBD0EB5FF2069460870F1
:1015F00008204870002088706920C870FFF7D2FF6B
:10160000020E69460A71020C4A71020A8A71C87197
:101610006846FEF7FCFE69464A788348921C00F053
:1016200073F90EBD10B5092103F0D2F9002901D0DC
:10163000401C80B210BD30B5BFB00546FF236846E0
:101640000370AB1E4370002484707123C370130AAF
:101650000371427106206A4605E00B781354641C3E
:10166000401CA4B2491C53785B1E8342F5DA104635
:10167000FEF7CDFE6846427869466B48921C00F042
:1016800043F92946684603F0A1F920463FB030BD32
:10169000F0B585B00446FFF785FFC117090E09189C
:1016A0000A02090A0902401A150C80B21E2103F031
:1016B0008FF90090E80028180E4601210F25C90275
:1016C000ED010190A04223D3544EFF22304603F097
:1016D00056F92046FFF7A6FFC1024F48012208181D
:1016E00052023146FFF7FAFD0921204603F070F956
:1016F000002909D02046FFF795FFC1004018201AA5
:10170000F0214843801921E07119224688202DE0FC
:10171000424FFF22384603F032F92046FFF782FF9E
:10172000C1023D480122081852023946FFF7D6FD92
:10173000009901984018A04220460AD3FFF772FF93
:10174000C1004018201AF0214843C0194119F8205F
:101750000BE0FFF767FFC1004018201AF021484353
:10176000C0194119F0000830C0B22246FFF763FFEC
:1017700016E7002804D0017940790902081880B2E0
:10178000704710B5C17822291ED014DC11291BD056
:101790000ADC042926D0052927D0062928D00729C4
:1017A00001D1FFF781FD10BD12290DD013290BD0F7
:1017B0002129F8D108E0332906D008DC232903D0F9
:1017C000312901D03229EED1FFF789FC10BD6529FE
:1017D00011D068291DD07029F8D1FFF7CAFFFFF793
:1017E00057FF10BDFFF73BFC10BDFFF784FD10BD98
:1017F000FFF7BCFD10BD00F00EFD0028FAD0FFF78A
:1018000043FEFFF75EFE2020FFF779FEFFF7D6FECE
:1018100010BDFFF7E9FE10BD00880008A0080020F9
:101820000090000800000208A0030020064908807C
:101830000028FDD1704710B500F01AF810BD10B5A2
:1018400000B200F02CF810BD8E00002010B504206E
:10185000C04301F065F81E481C49006803F0B8F861
:101860001C4940B27D220870D2005043488010BD10
:10187000184900228A5618495043486100228A615B
:1018800008690123184308610869C30701D0C00330
:10189000FAD508694008400008618A6170470D491F
:1018A00002228A5E0C495043486100228A6108691D
:1018B0000123184308610869C30701D0C003FAD5A2
:1018C00008694008400008618A61704700127A0088
:1018D000000000209000002000E000E08160002176
:1018E0008180C280418001807047002181804180D9
:1018F000018070478188C088814201D301207047F0
:101900000020704780887047F0B5C4888388A41A87
:10191000A34201DD0020F0BD00231D460DE0048838
:10192000C688B44200D3058007888668CC5CF4552D
:101930000488641C5B1C04809BB29342EFD38188B3
:10194000891881800120F0BD70B58388934200D84A
:101950001A4600231D460DE04488C688B44200D3D1
:10196000458046888468A45DCC544488641C5B1C14
:1019700044809BB29342EFD38188891A81801046BC
:1019800070BD0022426402644021C26481647047D9
:10199000026C8154016C491C0164402901D1002171
:1019A00001647047416C425C491C4164402901D18B
:1019B0000021416410467047426C016C881A9142C4
:1019C00000DA4030704770B5044600F0A8F8A16C0A
:1019D000814201DB0D1A01E00D1A40350023A0649D
:1019E0000EE0C118402903DB01191846103002E04F
:1019F000011918465030095C2046FFF7C9FF5B1CEF
:101A0000E06CAB42EDDB4019E064402801DB40387C
:101A1000E06470BDF3B501214C0493B0204600F0A2
:101A2000EFFE0121084600F0EBFE0121204600F008
:101A3000F9FE0926F60601220321304600F023FDB7
:101A400001220221304600F01EFD0C2502206946CD
:101A5000009508710320487100248C710120C87121
:101A6000304600F0A4FCE1204002304F12940D906B
:101A70000E940F9410940DA91195384600F07DFF37
:101A80002B4801F01FFE29488025283002901020A5
:101A900009944602039405940694079504900894CB
:101AA0000A9402A90B960C94214801F03DFE2048AF
:101AB000143001F007FE1D4805A924300290139848
:101AC00003901498049431C120200A901848089477
:101AD000099402A90B960C94143001F025FE012202
:101AE000C021384601F0F8F811480121143001F006
:101AF00044FE01210E4801F040FE0121384600F06D
:101B0000AEFF15B0F0BD0A4A13685B085B001360B6
:101B1000D06051601068012108431060704704488C
:101B200010B5143001F035FE10BD00000044004037
:101B3000440002401CB50121480400F061FE03206E
:101B40004002009001206946087188710022CA7124
:101B500048710920C00600F02AFC1CBD1CB50120FC
:101B60008002009001206946087188710020C871C8
:101B7000032048710920C00600F019FC1CBD1CB5EB
:101B800001208002009000206946087101228A71BC
:101B9000C871032048710920C00600F008FC1CBD74
:101BA00070B5FFF7DBFF0125AD020920C006856196
:101BB0006C1084610520FFF73EFE6E4E35810520D6
:101BC000FFF739FE348170BD70B501246948A40265
:101BD000048160100925ED06A8610520FFF72BFEA2
:101BE000AC610520FFF727FE70BD70B5FFF7B6FFAB
:101BF0000120604C8002208145100920C0068561CB
:101C00000520FFF718FE25810520FFF714FE70BDA3
:101C100010B5FFF7A3FF012189020920C0068161E9
:101C20004C1084610520FFF706FE52480481052010
:101C3000FFF701FE10BD70B50120002580020924C8
:101C4000E406A0610520FFF7F6FD01267602A661F5
:101C50000520FFF7F0FDFFF792FF1420FFF7EBFDE3
:101C6000208AFFF77BFF0520FFF7E5FD414806814D
:101C70001920FFF7E0FD284670BDF8B509270024BC
:101C8000FF0601260546760228063B4801D5B861C5
:101C900001E0384908816806050E0520FFF7CBFDF5
:101CA000BE610520FFF7C7FD324806810520FFF71A
:101CB000C2FD641CE4B2082CE6D3F8BDF8B50024DC
:101CC000FFF75DFF0126002576020927FF06BE61AA
:101CD0000520FFF7B0FD6006398A000E4905CC0FDC
:101CE0000443244806810520FFF7A5FD6D1CEDB2D5
:101CF000082DECD32046F8BD10B5FFF71BFFFFF70A
:101D00004FFF3020FFF7B9FFFFF795FFAA20FFF73D
:101D1000B4FFFFF790FF0020FFF7AFFFFFF78BFF47
:101D20000020FFF7AAFFFFF786FFFFF74DFF10BD6A
:101D300070B5FFF735FF3120FFF79FFFFFF77BFFFF
:101D4000FFF7BCFFFFF751FFFFF7B8FF0446FFF7AF
:101D50004CFFFFF7B3FF0546FFF747FFFFF7AEFF66
:101D60000646FFF755FFFFF72FFF20042902401812
:101D7000801970BD20000048000400001FB501213B
:101D8000480400F046FD15216846017300244473A1
:101D90000121817303A800F097FDA3487D21C900AC
:101DA000006802F015FE401E019068460480048120
:101DB000448084729D4C6946204601F041F801211F
:101DC000204601F0BAFB01221146204601F0A4FB97
:101DD0000121204601F0A5F81FBD1CB501204002DD
:101DE000009001206946087100208871C8710320A5
:101DF0008F4C4871204600F0DAFAFF200130009045
:101E00006946204600F0D3FA1CBD1CB52020009086
:101E100001206946087100208871C87103200924D7
:101E20004871E406204600F0C2FA2021204600F066
:101E300020FB1CBD70B5012194B0480400F0E0FC0B
:101E4000122006900321684601770024C4770920F8
:101E500006A9C00600F0ABFA0121480200F0D9FC47
:101E60000121084600F0CCFC724D284601F052FFDB
:101E7000714E304601F026FC6E480A9440300890BE
:101E80006E48099002200B9080200D9040000E902B
:101E900080000F90202010900C940002119008A94F
:101EA0001294304601F040FC0121304601F065FCFF
:101EB0000221284602F00DF80121284601F0FFFF1B
:101EC000684601F048FF0121684600940171042032
:101ED0000590029469460494284601F029FF0722E0
:101EE0000221284601F0A4FF07221021284601F014
:101EF0009FFF284601F0BFFF0121284601F033FF74
:101F00004F4C2846214601F0F4FF0028F9D028461E
:101F100001F0CDFF14B070BD70B501267602444CBF
:101F20007510002805D001280ED0022806D00328FD
:101F300012D13146204600F09AFA09E0294620469F
:101F400000F097FA314604E03146204600F091FA5D
:101F50002946204600F08BFA70BDFEB50320012112
:101F6000400400F04DFC01250024684600950471F2
:101F700009206946C00600F01AFA68020090684617
:101F800005718471C4710326294F4671694638462C
:101F900000F00DFA280200906946384600F007FA72
:101FA0000020FFF7B9FF202000906846057184717A
:101FB000C471467109206946C00600F0F8F909208D
:101FC0002021C00600F055FAFFF734FFFFF7F6F9BD
:101FD0001C490870FFF775FAFEBD10B501210920F4
:101FE0004902C00600F031FA10BD10B509200121E8
:101FF000C00600F02AFA10BD01207047704701208A
:10200000704770470120704770471CB50121880454
:1020100000F0F6FB01200022694600900A71C871A9
:10202000034800F0C4F91CBD00000020004401403A
:1020300000040048002401400800024094000020F1
:10204000010000012A0000207CB50320012140048A
:1020500000F0D6FB022469460C7100208871C8711B
:10206000032048710925ED0601220621284600F0CB
:102070000AFA402000906946284600F098F9454D3C
:1020800000220121284600F0FEF969462846009406
:1020900000F08DF900F03AF87CBD70B515460646A3
:1020A0003D4A481E88B090422BD8642D29D83B4821
:1020B00002F08EFC401E0690394968468182002459
:1020C0008483C48206986421401C684302F080FC2B
:1020D000014660226846028001224280029184818A
:1020E000012E10D0022E0CD12E4C05A9204600F056
:1020F000A7FE6946204600F044FF0821204601F073
:1021000087F808B070BD05A9274CEFE770B588B017
:102110000121022000F086FB0121080200F082FB71
:102120001E486946401E06901D48888200248C8304
:102130001D4DCC8205A9284600F082FE194E05A946
:10214000304600F07DFE602069460880012048800E
:1021500002948C81284600F014FF0821284601F0E3
:1021600057F86946304600F00CFF0821304601F070
:102170004FF80121284600F0BBFE0121304600F057
:10218000B7FE0121284600F0CCFE0121304600F0C8
:10219000C8FEB6E700040048B70B000080BB000093
:1021A000E7030000002000400004004010B5044692
:1021B000002002F08FF82146002002F0FFF810BD49
:1021C0000A2805D00B2805D00C2800D11220704712
:1021D000102070471120704710B50121080700F04A
:1021E00021FB012001F00BFB012000F0F1F921207F
:1021F00000F090F90028FAD0FF20013000F0E6FA54
:102200001B48FF2141607F210160012000F0E3FABB
:1022100001F048FF10BD10B5044686B0012001F062
:10222000EEFAFFF7D9FF00200090114841680291B3
:102230000068019061796846C173A1794173E179C1
:102240008173617A0174A17A4174E17A817401F039
:1022500095FF00280AD004A9002001F0EEFF03A991
:10226000002002F05EF8012006B010BDFEE700007D
:10227000980000202A4D2B4C0026666061680C20D7
:10228000414348194279012A09D1C3888268D2188A
:1022900023689A4203D88660C68068588047606881
:1022A000401C60600A28E9D3E7E730B50C231446E8
:1022B0001B4D5C43631959711A7128510020D88055
:1022C000986030BD092805D80C225043144A0121DA
:1022D000801841717047092805D80C225043104AD4
:1022E000002180184171704710B509280ED80D4A99
:1022F00013680C2250430A4A84187D20C0004843CA
:102300007D21C900A36002F063FBE08010BD054899
:102310000168491C0160704710B5FFF72FFD10BD23
:10232000A0100020A0000020074880470748004771
:10233000FEE7FEE7FEE7FEE7FEE7FEE704480549A5
:10234000054A064B70470000F1010008C100000873
:1023500078110020781700207813002078130020CF
:10236000092110B5C906884202D101214C0404E0BC
:102370004D49884209D101210402204600F05BFA50
:102380000021204600F057FA10BD4849884202D18A
:1023900001210402F1E74649884202D101210C05DE
:1023A000EBE744498842EFD101218C05E5E7F0B520
:1023B0000022012423460D6893401D409D422AD1EE
:1023C0000D79012D01D0022D12D187685500032609
:1023D000AE40B74387604E79AE4085682E43866035
:1023E00085889D43858085888B7993401D438580B2
:1023F000066855000323AB409E4306600E790768CC
:10240000AE403E430660C6689E43C660CB79AB4093
:10241000C5682B43C360521C102ACBD3F0BD26499C
:10242000016000210171022242718171C171704706
:10243000012208B512040A430092C261C1610099E9
:10244000C161C169C069009008BD0246128A0020BE
:102450000A4200D001207047008A70470246928AE3
:1024600000200A4200D001207047808A70478161B5
:10247000704701857047002A01D08161704701854E
:102480007047818270474B07DB0E9A40C90810B530
:1024900089000818016A0F249C40A1430162016A67
:1024A0001143016210BD000000040048000800480C
:1024B000000C004800140048FFFF0000F7480168C6
:1024C0000122114301604168F54A114041600168F1
:1024D000F44A1140016001680122920491430160B5
:1024E00041683F22120491434160C16A0909090110
:1024F000C162016BFF22543291430163416B490871
:1025000049004163002181607047E44900228A70DC
:102510008870704703460020E0495A090CD0012A10
:102520000CD0022A0CD0496BDA06D20E012393405C
:102530000B4200D0012070470968F5E7096AF3E70C
:10254000496AF1E718B50020052424020090112003
:10255000FFF7E0FF0099491C0091A14201D000283B
:10256000F5D01120FFF7D6FF002800D0012018BDBC
:10257000CA4A1168F8239943C000084310607047A5
:10258000C6490028086802D00122104301E0400833
:10259000400008607047C14A516BF8239943C0005E
:1025A000084350637047BD490028486B02D00122A0
:1025B000104301E04008400048637047B7490422D7
:1025C0000028486B01D0904300E0104348637047F7
:1025D000B2490A6A520852000A620A6A04239A43FC
:1025E0000A620A6A02430A627047AC490A6A1823FF
:1025F0009A430A620A6A02430A627047A74900289E
:10260000486A02D00122104301E0400840004862BD
:10261000704710B5A14A53683D242404A343536076
:10262000536808430343536010BD01229B491206BF
:102630000028086801D0104300E09043086070470C
:10264000964AD16A090909010143D1627047012202
:102650009249D2040028086801D0104300E090435A
:10266000086070478D49C87170478C4A5168890865
:102670008900014351607047884840680C21084038
:102680007047864A5168F02399430143516070476F
:10269000824A516807231B029943014351607047E6
:1026A0007E494A6801239B039A434A604A6883B281
:1026B0001A434A600A6B8B159A430A630A6B000C33
:1026C00002430A63704775490A6B40239A430A63C1
:1026D0000A6B02430A63704770490A6B10239A43DE
:1026E0000A630A6B02430A6370476C490A6B9208DB
:1026F00092000A630A6B02430A637047F8B5674D9C
:10270000044668680C21684E084003D0042801D0B4
:10271000082801D0266012E06968686801228902F1
:1027200012040F0F1040BF1C00281CD0E86A0107DC
:10273000090F3046491C02F04BF978432060686865
:102740005A4B0006000F1A5C20680146D1406160B8
:102750006A685205520F9A5CD140A1602A6BD2057B
:1027600005D4534A09E0534847432760E7E76A68BE
:10277000520401D44A0800E08A08E2602A6B53063A
:102780004D4A03D44C4B1233236100E022612B6B82
:10279000DB0601D4666100E060612B6B9B070FD004
:1027A000296B8907890F01290CD0286B8007800FBE
:1027B000022809D0286BC043800700D1A661F8BD6C
:1027C000A161F8BDA061F8BDA261F8BD33490A6AF4
:1027D00002430A62704731490028374A086A01D02B
:1027E000104300E090430862704701222B49120415
:1027F0000028086A01D0104300E090430862704747
:10280000264A0029516901D0014300E0814351610A
:102810007047224A0029916901D0014300E08143B9
:10282000916170471D4A0029D16901D0014300E040
:102830008143D1617047194A0029916A01D001434F
:1028400000E0814391627047144A0029D16801D0A9
:10285000014300E08143D1607047104A00291169AB
:1028600001D0014300E08143116170470B4A002908
:10287000517A01D0014300E081435172704707480B
:10288000416A01221206114341627047034A014620
:10289000926800200A4200D00120704700100240D8
:1028A0000CB8FFF8FFFFF6FE00127A00A800002027
:1028B000809FD50000093D0000800000014988721A
:1028C000EBE700000010024030B583780121027868
:1028D000002B15D09408174BA400E4182368920726
:1028E000D50EFF22AA40934342789207120EAA40C7
:1028F0001A4322600078C006C00E81400E4804E0F2
:10290000D006C00E81400C488030016030BD0B4ABB
:102910000029116901D0014300E081431161704732
:10292000042207490428086902D0904308617047CF
:102930001043FBE700E400E000E100E000ED00E010
:1029400000E000E0F74910B5884209D101218C036D
:102950002046FFF779FF00212046FFF775FF10BDE5
:10296000F1498842FBD101214C042046FFF775FF55
:1029700000212046FFF771FF10BD70B504460068C6
:1029800088B00D46400840002060616803200003C5
:102990008143A868084360602168E448EA68014010
:1029A000686810432A690A4310432060A068032125
:1029B0000902884369690143A1606846FFF79EFEEA
:1029C000D848844201D1069800E0029821680904A1
:1029D000296801D5490000E089001922504301F01F
:1029E000F7FF0546642101F0F3FF06013009642179
:1029F00048432168281A090407D5C00064213230F1
:102A000001F0E6FF4007400F06E00001642132308C
:102A100001F0DEFF0007000F3043A08108B070BD59
:102A20004B21C90101600021416081600C22C1601D
:102A300002614161704710B542680F231B029A433F
:102A400018C923430C6849680C432343134343606C
:102A500010BD0021016041608160C16070470029A4
:102A6000016802D00122114301E0490849000160D8
:102A70007047002A026801D00A4300E08A430260DE
:102A800070470122D2030029016801D0114300E000
:102A90009143016070470122D2020029816801D070
:102AA000114300E09143816070470122D204002964
:102AB000416801D0114300E0914341607047012219
:102AC00092040029416801D0114300E09143416024
:102AD0007047002A426801D00A4300E08A434260FE
:102AE00070470122D2030029416801D0114300E060
:102AF0009143416070470122D2050029416801D00D
:102B0000114300E09143416070474269120E120682
:102B1000426142690A4342617047028A120A120204
:102B20000282028A0A430282704702220029016857
:102B300001D0114300E09143016070478268032394
:102B40001B059A43826082680A43826070470122B3
:102B500012050029416801D0114300E09143416012
:102B60007047426803235B059A43426042680A4308
:102B700042607047C1690122D2039143C16170472D
:102B8000C905C90D01857047808CC005C00D70470F
:102B900042681202120A4260426809060A43426011
:102BA0007047012252030029016801D0114300E05F
:102BB00091430160704702680123DB029A4302607F
:102BC00002680A4302607047426810239A434260D9
:102BD00042680A4342607047426820239A43426039
:102BE00042680A434260704701229203002941680B
:102BF00001D0114300E09143416070470822002951
:102C0000816801D0114300E0914381607047028ADE
:102C1000D2B20282028A09020A430282704720224B
:102C20000029816801D0114300E091438160704721
:102C300010220029816801D0114300E09143816096
:102C40007047826807235B049A4382608268490464
:102C50000A438260704742691202120A4261426965
:102C600009060A4342617047826804239A438260DE
:102C700082680A438260704702220029816801D07D
:102C8000114300E0914381607047012292030029C3
:102C9000816801D0114300E09143816070478268F0
:102CA0000123DB039A43826082680A438260704793
:102CB00002681F235B059A430260026849050A43C4
:102CC0000260704702681F231B049A430260026877
:102CD00009040A4302607047002A826801D00A434F
:102CE00000E08A4382607047826801235B039A4355
:102CF000826082680A438260704710B50B041C0E24
:102D000001238B40022C02D0032C02D002E0001DD4
:102D100000E008300168002A01D0194300E099431F
:102D2000016010BD0038014000440040F3E9FFFF9E
:102D3000002A028B01D00A4300E08A4302837047D5
:102D4000826801231B039A43826082680A4382607F
:102D500070470246D26900200A4200D00120704725
:102D60000162704730B50A04130E01221446002593
:102D70008C40012B0ED0022B0ED08368090C23400F
:102D8000C0698A401040002B02D0002800D00125E5
:102D9000284630BD0368F1E74368EFE70A0C0121DC
:102DA0009140016270470000F84910B5884202D195
:102DB0000121C41430E001218907884206D1012194
:102DC0000846FFF74AFD0021012008E0F04988424B
:102DD00008D101210220FFF740FD00210220FFF76A
:102DE0003CFD10BDEB49884206D101211020FFF7C0
:102DF00034FD00211020F2E7E749884207D184150D
:102E000001212046FFF729FD00212046E7E7E3499D
:102E1000884209D101210C042046FFF715FD00214D
:102E20002046FFF711FD10BDDD49884202D1012186
:102E30004C04F1E7DB498842F5D101218C04EBE732
:102E400010B50288D14B984206D00124A407A042B5
:102E500002D0CF4CA04203D17024A2434C8822431D
:102E6000CC4CA04203D0D04C22400C89224302809B
:102E70004A68C2620A880285984208D0C74A9042CE
:102E800005D0C74A904202D0C64A904201D1897A01
:102E900001860121818210BD0021C94341600021CA
:102EA0000180018141808172704701858282704773
:102EB000028870239A430A43028070474162704738
:102EC000C1627047406A7047008D70470222002936
:102ED000018801D0114300E0914301807047042232
:102EE0000029018801D0114300E09143018070471F
:102EF00080220029018801D0114300E09143018024
:102F00007047028808239A43028002880A4302809D
:102F100070470288A44B1A40028002880A4302804C
:102F200070470029018802D00122114301E04908BD
:102F300049000180704710B50A884B88CC881A4335
:102F40008B8823431A430B891A434B8989891A4377
:102F50000A434030828010BD002101804180818081
:102F6000C180018141818181704740300029818881
:102F700003D00122D203114301E04904490C8180AE
:102F8000704730B5028C520852000284038C82884C
:102F9000048B7025AC43A4080D88A40025430224AB
:102FA000A3438C891C434B882343784CA04208D010
:102FB0007A4CA04205D07A4CA04202D0794CA04273
:102FC0000DD10824A343CC891C4304239C438B8844
:102FD0002343754C22400C8A14434A8A2243828040
:102FE000058389684163038430BD70B5028C10236A
:102FF0009A430284048C8288038B6C4D2B400D789D
:103000002D062D0C1D4320239C438B891B051E0C74
:103010004B8826431B051B0C5C4C3343A04215D147
:103020008024A343CC892405240C1C4340239C43C7
:103030008B881B051B0C23435D4C22400C8AA40487
:10304000240C14434A8A9204120C22438280058382
:1030500089688163038470BD30B5028C554B1A407A
:103060000284038C8288848B7025AC43A4080D886D
:10307000A4002543504C23400C7B2406240C1C4305
:103080008B781B061B0C2343404CA04215D14B4CA4
:1030900023408C7B2406240C1C43494B1C400B7999
:1030A0001B061B0C2343474C22400C8A2405240C8E
:1030B00014434A8A1205120C224382808583896850
:1030C000C163038430BD30B5028C3F4B1A4002848B
:1030D000048C8388828B354D2A400D782D062D0C6B
:1030E00015433A4A14400A7B1207120C22438C788B
:1030F0002407240C1443254A904205D1344A134036
:103100000A8A9205120C13438380858389680164BF
:10311000048430BD002101804180818081608181F3
:10312000C18101824182704730B5034618330124C2
:10313000058C8C40A5430584002910D008290ED0A9
:10314000091F0804400CC018016807231B0399439A
:10315000016001681206120C1143016030BD48087D
:10316000C01801687023994301600168F4E7416366
:10317000704781637047C163704701647047028B79
:1031800070239A430A43028370470000002C0140D9
:1031900000040040001000400020004000400140BA
:1031A0000044014000480140FFFC0000FF8C00008B
:1031B000FFF30000FFFE0000FFFD0000FFF700002E
:1031C000FFFB0000FFCF0000FFEF0000FFDF00006B
:1031D000FFBF0000028BF64B09021A401143018326
:1031E000D2E7828B70239A430A438283CCE7828B97
:1031F000EF4B09021A4011438183C5E700298188FA
:1032000002D00122114301E0490849008180BBE757
:10321000028B08239A430A430283B5E7028BE54BEE
:1032200009021A4011430183AEE7828B08239A43B7
:103230000A438283A8E7828BDE4B09021A401143BE
:103240008183A1E7028B04239A430A4302839BE70D
:10325000028BD94B09021A401143018394E7828BF8
:1032600004239A430A4382838EE7828BD24B09025E
:103270001A401143818387E7028B80239A430A43D4
:10328000028381E7028B5204520C0902114301832D
:103290007AE7828B80239A430A43828374E7828B86
:1032A0005204520C0902114381836DE7028C022300
:1032B0009A430A43028467E7028C08239A430A432D
:1032C000028461E7028C20239A430901114301849F
:1032D0005AE7028C80239A4309011143018453E782
:1032E000028CB64B09021A40114301844CE7028C50
:1032F000B04B09021A401143018445E7028CB04BE0
:1033000009031A40114301843EE7028908239A43C6
:10331000028102890A43028136E710B50123048C39
:103320008B409C430484038C8A401343038410BD68
:1033300010B50423048C8B409C430484038C8A4086
:103340001343038410BD04220029818801D0114356
:1033500000E09143818017E7828B9A4B1A40828369
:10336000828B09020A4382830EE7828B0C239A43E5
:103370008283828B0A43828306E7028B914B1A4039
:103380000283028B09020A430283FDE6F0B5048C36
:103390001026B4430484058B048C8B4F1B03090156
:1033A0003D402B4312021A43A0239C430C43344359
:1033B00002830484F0BD028B0C239A430283028BA8
:1033C0000A430283E0E670B5048C64086400048458
:1033D000058B048C1B011343F3260A22B543944347
:1033E0002B430C4301210C430383048470BDF8B5C7
:1033F000044608884E888A880B890D4600281DD00F
:10340000042824D00828208C2AD070490840208421
:10341000A08B278C31036C4E1202304002431803FC
:1034200010436B4AA08317400F43012109030F4348
:103430002784E9882046FFF78FFFF8BD31462046F4
:10344000FFF7C1FFE9882046FFF7B5FFF8BD314619
:103450002046FFF79BFFE9882046FFF78EFFF8BD67
:103460005C4908402084A18B208C3702F3261B0185
:10347000B14313430B435849A3830840FF2138430A
:10348000013108432084E9882046FFF76EFFF8BD2C
:1034900000210180418001228280C180018173E688
:1034A000F8B50C464988002601250746002900D1B9
:1034B0000226A288012A00D102252088238900281B
:1034C000384610D0FFF762FFE1883846FFF755FF16
:1034D00023892A4631463846FFF775FFE18838468A
:1034E000FFF769FFF8BDFFF76EFFE1883846FFF789
:1034F00062FF23892A4631463846FFF747FFE188B5
:103500003846FFF73AFFF8BD406B3DE6806B3BE67F
:10351000C06B39E6006C37E6002A828901D00A4385
:1035200000E08A4382812FE681822DE60246128ADC
:1035300000200A4200D0012026E6C943018223E68A
:103540000246138A002092890B400A40002B02D0C9
:10355000002A00D0012017E6C943018214E6114376
:103560004030018110E6002A828901D00A4300E040
:103570008A43828108E608220029818801D011430C
:1035800000E091438180FFE50189C908C9000181FC
:10359000FAE5028970239A430A430281F4E510B5E3
:1035A0000446FFF7F6FF208907210843208110BD5C
:1035B000FF8F0000FFF70000FFFB0000FFFD000091
:1035C000FFDF0000FFF30000FF0C0000FFEF000032
:1035D000FF5F0000FFFE0000FFF5000070B516461B
:1035E0000D46044660290CD001223146FFF7EBFE60
:1035F00029462046FFF7CDFF208907210843208177
:1036000070BD01223146FFF7C1FEF1E710B5048914
:103610001B021343E4B20B432343038110BD10B5D7
:103620000446FFF7F3FF2089C108C90007200143C2
:10363000702081430143218110BD10B50446FFF77E
:10364000E5FF2089012189030843208110BD82887C
:1036500070239A43828082880A43828094E502899B
:10366000D208D200028102890A4302818CE50289D4
:1036700080239A43028102890A43028184E570B55E
:103680000689048B058CF608F6000E430C4906816A
:103690000C40FF2102310C43AA218D431901114333
:1036A00029430483018470BD80220029818801D0D0
:1036B000114300E09143818066E54030018263E57B
:1036C000FCFC00000168454A1140016000210160D6
:1036D00041608160C1604249414A0839904202D14B
:1036E00048680F2205E03E4A1432904204D14868EF
:1036F000F022104348607047394A2832904203D183
:1037000048680F221202F4E7354A3C32904203D156
:1037100048680F221203ECE7314A50329042EAD156
:1037200048680F221204E4E730B503682D4A0C6A9A
:1037300013408A684D6922430C692C4322438C69EB
:103740002243CC6922434C6A22438C6A22431A43A7
:103750000260CA6842600A6882604968C16030BD20
:103760000021016041608160C1600161416181614E
:10377000C16101624162816270470029016802D023
:103780000122114301E0154A114001607047416078
:103790007047406880B27047002A026801D00A432F
:1037A00000E08A430260704701460D4A0020083A53
:1037B00012680A4200D00120704709490839486060
:1037C00070470146064A0020083A12680A4200D0B3
:1037D000012070470249083948607047FEFF000029
:1037E000080002400F80FFFF10B501210C072046A2
:1037F000FFF733F800212046FFF72FF810BD3049BE
:103800008A150028086801D0104300E09043086042
:1038100070472B4A1168E0239943014311607047B8
:10382000274910220028086801D0104300E0904387
:1038300008607047224A0029516801D0014300E026
:103840008143516070471F490A6904239A430A6102
:10385000012801D020BF704730BF7047184B1A684D
:103860009208920002431A60164803690422134327
:103870000361012904D020BF0169914301617047B0
:1038800030BFF9E70E48026804210A43026002686B
:1038900002231A4302600B4802690A43026130BFE7
:1038A0007047074A0146526800200A4200D00120B2
:1038B000704703490A68800002430A6070470000AD
:1038C0000070004000ED00E0FE4A11684908490020
:1038D000014311607047FB4910220028086801D09D
:1038E000104300E0904308607047F64900200968E3
:1038F000890600D501207047F2480169090603D501
:10390000F1494160F14941607047EE480169802208
:10391000114301617047EB490420CA68D20701D006
:1039200001207047CA68D20601D502207047C968D5
:103930004907FBD50320704700B50346FFF7EBFFAF
:1039400002E0FFF7E8FF5B1E012803D0002B00D147
:10395000052000BD002BF4D1FAE7F0B50B27064691
:103960003F043846FFF7E8FF04280FD1D54C206903
:1039700002252843206166612069402108432061B7
:103980003846FFF7D9FF2169A9432161F0BD70B521
:103990000B252D042846FFF7CFFF04280ED1C94C74
:1039A00020690426304320612069402108432061BA
:1039B0002846FFF7C1FF2169B143216170BDF8B509
:1039C000064600200B273F0400900D463846FFF7BF
:1039D000B3FF042815D1BB4C2069012108432061A5
:1039E00035803846FFF7A8FF042806D1B61C280CFE
:1039F000009630803846FFF79FFF2169490849004B
:103A00002161F8BDF0B50B2706463F040D46384648
:103A1000FFF792FF04280CD1AA4C2069012108432A
:103A2000206135803846FFF787FF21694908490042
:103A30002161F0BDA3480169890503D4A2498160D1
:103A4000A249816070479F48016942159143016115
:103A500070479C480169012252031143016170477C
:103A600098490020C9694907890F00D00120704793
:103A7000F0B5AA25FFF7F4FF002800D000250B279A
:103A80003F043846FFF758FF042813D18D4C2069B6
:103A900020263043206120694021084320613846B8
:103AA000FFF74AFF1021042805D0052802D022691B
:103AB0008A432261F0BD2069B043206120690E462F
:103AC00030432061824805803846FFF735FF0528DE
:103AD000F0D02169B1432161F0BDF0B5C043C6B259
:103AE0000004050E0B200004FFF726FF04281BD15D
:103AF000744C2169102211432161754FFF2E06D0AD
:103B00003E810B200004FFF717FF042806D1FF2D8C
:103B100006D07D810B200004FFF70EFF052803D09F
:103B2000226910218A432261F0BDF0B50B260746B9
:103B300036043046FFF700FF04281ED1614C20698F
:103B40002025284320612069402108432061304618
:103B5000FFF7F2FE04280BD12069A84320612069F9
:103B60001025284320615A4807803046FFF7E4FEBD
:103B7000052802D02169A9432161F0BDF0B50546B1
:103B80000B2094460F460004FFF7D6FE042814D1FC
:103B90004C4C20691026304320613D43604605436C
:103BA000F82005434A4845800B200004FFF7C4FE77
:103BB000052802D02169B1432161F0BDF0B50B2782
:103BC00005463F043846FFF7B7FE042810D13D4CA8
:103BD0002069102630432061EF2005433C48458092
:103BE0003846FFF7A9FE052802D02169B1432161BB
:103BF000F0BDF0B50B2705463F043846FFF79CFEA5
:103C0000042810D12F4C2069102630432061DF207A
:103C100005432F4845803846FFF78EFE052802D021
:103C20002169B1432161F0BDF0B50B2705463F0482
:103C30003846FFF781FE042810D1224C2069102657
:103C400030432061BF200543214845803846FFF7B7
:103C500073FE052802D02169B1432161F0BDF0B5A2
:103C60000B2705463F043846FFF766FE042810D1AF
:103C7000144C2069102630432061882005431448E5
:103C800045803846FFF758FE052802D02169B14328
:103C90002161F0BDF0B507460B200E460004FFF78A
:103CA0004BFE042817D1074C2069102528432061BA
:103CB0003E800B200004FFF73FFE05280BD0216952
:103CC000A94307E00020024023016745AB89EFCDFF
:103CD00000F8FF1F2161F0BD0D48C0690004000E0F
:103CE00070470B48006A7047094A0029116901D0E2
:103CF000014300E0814311617047054A0146D268E3
:103D000000200A4200D0012070470149C860704776
:103D100000200240854910B5884208D14415012190
:103D20002046FEF791FD00212046FEF78DFD10BDD7
:103D300030B5C3687E4A8C6813400A680D79224307
:103D4000CC686D032C4322430C69496922430A4322
:103D50001A43C26030BD0021016001718160C16001
:103D60000161416170470029816801D0012200E0B2
:103D70000222114381607047002A026901D00A4380
:103D800000E08A43026170470122D2030029C16822
:103D900001D0114300E09143C160704701229203BA
:103DA0000029C16801D0114300E09143C160704710
:103DB0000122D2050029C16801D0114300E09143DE
:103DC000C16070470904114301627047C2681F2334
:103DD0009B069A430A43C26070470122920500295C
:103DE000C16801D0114300E09143C16070470122D6
:103DF0005049D2050028886801D0104300E0904364
:103E00008860704701224B4992050028886801D0DC
:103E1000104300E090438860704701224549120634
:103E20000028886801D0104300E090438860704704
:103E3000836A0B4383624261704701225203002967
:103E4000C16801D0114300E09143C1607047012275
:103E500012040029C16801D0114300E09143C16000
:103E60007047012212030029C16801D0114300E00C
:103E70009143C1607047826800210123DB071A4328
:103E800082600F231B038268491CD20FD20799421C
:103E900001D0002AF7D18168002901DB006C70474E
:103EA000002070478168102211438160704781684B
:103EB0000422114381607047006C80B27047002972
:103EC000C16802D00122114301E049084900C160E4
:103ED0007047C26802239A43C260C2680A43C26044
:103EE0007047002A426801D00A4300E08A434260DA
:103EF000704702460020CB0104D5926801231B06BF
:103F00009A4300E012680A4200D001207047016025
:103F1000704702465368002012680B400A4202D0E4
:103F2000002B00D001207047016070470024014041
:103F300003D2FFFF002701403248314901600021D0
:103F400041608160C16030494161704710B583793B
:103F50002C490268002B26D00B6893430B604A68FB
:103F600003689A434A60027952181368046823432D
:103F700013608A6803689A438A60CA6803689A4330
:103F8000CA604279102A05D051180A6800680243B5
:103F90000A6010BD8A6803681A438A60CA680068AC
:103FA0000243CA6010BD0079401801689143016066
:103FB00010BD0021016001710C22427181717047B6
:103FC00010490A6902430A6170470E4A0146526964
:103FD00000200A4200D0012070470A49486170471A
:103FE000084A01461368002052690B400A4202D079
:103FF000002B00D001207047024948617047000043
:104000000000940F00040140FFFF6B00244801688A
:104010008907890F016000218160C16001614161F0
:10402000816982151143816170471D4A11688908B1
:104030008900014311607047194A0029116801D0B5
:10404000014300E0814311607047154A002911685F
:1040500001D0014300E08143116070478A07130FCC
:1040600010B50F229A408C080D49A40061188C6885
:1040700094438C608A68984002438A6010BD084966
:104080008A6902438A617047054900208969C90528
:1040900000D50120704702498A6902438A6170474E
:1040A0000000014018B50020F7490090886880069C
:1040B00001D5012018BDCA20486253204862C86853
:1040C000A0229043C86020229302C868009C104040
:1040D000641C00949C4201D00028F6D0C868800679
:1040E00001D5012000E00020FF224A6218BD18B56A
:1040F00000200090E448C168490612D40021C94359
:10410000C16040220314C168009C1140641C0094EB
:104110009C4201D00029F6D0C068400601D400209E
:1041200018BD012018BD78B50024D74DCA200094D1
:104130002646686253206862FFF7D9FF002813D033
:104140002C60D2486860A868AC60D1482861EC61F6
:10415000EC62EC63CC4840304460EC600460FFF7F4
:10416000A1FF002800D00126FF206862304678BDFC
:10417000C548C16880229143C160704770B505464B
:104180000026C14CCA20606253206062FFF7AFFF77
:10419000002811D0A06840218843A060A068296849
:1041A0000843A060A86820612069A9880904084321
:1041B0002061FFF7DDFF0126FF206062304670BD01
:1041C000002101607F214160FF2181607047AE497D
:1041D000002801D0FF2002E0CA2048625320486234
:1041E000704770B506460025A74CCA206062532070
:1041F0006062FFF77CFF00280AD01020A168002E23
:1042000001D0014300E08143A160FFF7B1FF012528
:10421000FF206062284670BD9B49CA224A62532231
:104220004A620028886802D02022104301E0DF2281
:1042300010408860FF2048627047F8B502460027AA
:10424000914D0C46002A0978AA68384605D05206D6
:104250002FD5084600F047FB2CE0520600D4E07052
:10426000084600F034FB0604607800F030FB0002E2
:104270000643A07800F02BFB0643E07800040643D9
:10428000CA20686253206862FFF731FF00280CD013
:10429000804806402E60FFF76BFFA868800603D4B5
:1042A000FFF700FF002800D00127FF206862384692
:1042B000F8BDE0702078A678000406436078E178C5
:1042C000000209040843DAE70021C170017041705F
:1042D0008170704770B50C466B490B686D49194089
:1042E0008A024D04920E22706D0E49066570490EC9
:1042F000A1705902490E40231940E17000280BD1EA
:10430000104600F0F0FA2070607800F0ECFA60706F
:10431000A07800F0E8FAA07070BD5B49886A49682F
:10432000704770B50C4601460026607800290ED013
:1043300000F0D9FAA07800F0D6FAE078A578000469
:1043400005436078217800024903084314E0C10660
:1043500003D5EF2108400A306070E07800F0B7FA2A
:104360000504607800F0B3FA00020543A07800F07D
:10437000AEFA0543207840030543434CCA206062EF
:1043800053206062FFF7B3FE00280CD0424805407E
:104390006560FFF7EDFEA068800603D4FFF782FE9C
:1043A000002800D00126FF206062304670BD012148
:1043B0000170817041700021C1707047024610B5D4
:1043C00031480C464068C021C94301400002000E3C
:1043D000CB04E070DB0E63708B069B0E0904490F63
:1043E000A3702170002A0CD100F07DFAE070607893
:1043F00000F079FA6070A07800F075FAA07020786B
:10440000207010BD70B500211F4E0028B068144602
:1044100020D0400635D5207800F065FA207B00F0EA
:1044200062FA2078A578000405436078E1780002FC
:10443000090408430543207B00060543A0680543A3
:1044400060680543CA20706253207062F561FF20E6
:10445000706270BD400600D4E170207800F037FA39
:104460000504607800F033FA00020543A07800F0FC
:104470002EFA0543E07800040543207B00F027FA7C
:10448000DAE7E170CAE700000028004001210000DF
:10449000FF007F007F7F7F003FFFFF000021C17092
:1044A0000170417081700122816002734160704728
:1044B00070B5FC491446C96940258A02920E4B0426
:1044C00022705B0E63704B065B0EA3700B0C2B40CF
:1044D000E3708B009B0E23732B060B40A360F24B03
:1044E0001940616000280FD1104600F0FCF92070DF
:1044F000607800F0F8F96070A07800F0F4F9A0702E
:10450000207B00F0F0F9207370BD18B500220092F6
:10451000E44ACA235362532353620029916802D0AC
:104520000143916012E081439160000A01239B03E3
:10453000D168009C0140641C00949C4201D0002979
:10454000F6D0D168014201D1002000E00120FF2116
:10455000516218BDD348CA234362532343621206F3
:104560000A43D04940314A60FF2141627047CD483B
:10457000403040684004400C704710B5C94ACA2317
:1045800053625323536293680124A404A3439360AA
:104590009368084303439360FF20506210BDC148F5
:1045A0008068012189040840704710B5BD4ACA23BC
:1045B000536253235362936807242405A3439360F3
:1045C0009368084303439360FF20506210BDB549D0
:1045D000CA224A6253224A620122D2050028886810
:1045E00001D0104300E090438860FF20486270478C
:1045F000AC49CA224A6253224A628A680123DB0418
:104600009A438A608A6802438A60FF204862704742
:1046100070B50024A34BCA255D6253255D62DD6839
:10462000ED0307D59D14DE68F60303D5AC4201D037
:10463000641CF8E7DC68E40304D408431043D8633F
:10464000012000E00020FF21596270BD10B5954B9C
:104650009A68964C2240002901D00243D8140243A4
:10466000CA205862532058629A60FF20586210BDD9
:1046700070B50D468B4914460B6B8D4A496B1A4039
:10468000C026F64331409602B60E2E705604760EC2
:1046900052066E70520EAA705A02520E40231A40F1
:1046A000EA700022E270CA04D20E62708A06920E8C
:1046B0000904490FA2702170002817D1287800F052
:1046C00012F92870687800F00EF96870A87800F088
:1046D0000AF9A870607800F006F96070A07800F020
:1046E00002F9A070207800F0FEF8207070BD6D48CF
:1046F000806B70476B4A400040320029116802D03D
:104700000143116070478143FBE7664A403200294C
:10471000116801D0014300E0814311607047614995
:1047200040310A680323DB029A430A600A680243A5
:104730000A6070475B4940310A6807231B029A43AD
:104740000A600A6802430A607047564940310A68A5
:1047500003235B039A430A600A6802430A607047B6
:104760005049802240310028086801D0104300E001
:104770009043086070474B494031CA1300280868CD
:1047800001D0904300E0104308607047454A08B5E7
:104790005032800080180090016008BD414908B582
:1047A0005031800040180090006808BD3D494031FC
:1047B0000A6801239B049A430A600A6802430A605C
:1047C000704730B50022374CCA23636253236362BB
:1047D000E3681B0707D5A314E5682D0703D59A42A4
:1047E00001D0521CF8E7E26812070AD4A268D20688
:1047F00007D40143E162FFF755FC002802D00120F5
:1048000000E00020FF21616230BD30B5254ACA2397
:1048100053625323536204250446224BAC43403376
:1048200028400029916804D0214391601968014310
:1048300003E0A1439160196881431960FF20506231
:1048400030BD18490246C96800201A4B1940114270
:1048500000D00120704780210843C003C00BC24331
:104860001048C3680B401A43C260704770B50D49C9
:10487000002240310B6804210A4C0B40A168860CD1
:104880000546F540ED0B1D400140E3682943000952
:104890000340002903D01804000C00D00122104668
:1048A00070BD00000028004080808080F7F7FFFF87
:1048B0007F7F7F0078F9010000098021084380B2E2
:1048C000C2430D48C3680B401A43C26070470021C1
:1048D00003E0491C0A38C9B2C0B20A28F9D2090754
:1048E000090E0843704701090A2200075143000FCF
:1048F0004018C0B27047000000280040F8B5042AF4
:104900002CD3830712D00B78491C0370401C521E15
:1049100083070BD00B78491C0370401C521E830781
:1049200004D00B78491C0370401C521E8B079B0F50
:1049300005D0C91ADF002023DE1B08C90AE0FBF7F7
:1049400011FCF8BD1D4608C9FD401C46B4402C436F
:1049500010C0121F042AF5D2F308C91A521EF0D44F
:104960000B78491C0370401C521EEAD40B78491C7A
:104970000370401C012AE4D409780170F8BDD2B25A
:1049800010B513029A1813049A1800F00EF810BD0F
:1049900001E004C0091F0429FBD28B0701D5028066
:1049A000801CC90700D00270704700290BD0C307D4
:1049B00002D00270401C491E022904D3830702D58D
:1049C0000280801C891EE3E70022EEE70022DFE779
:1049D000002203098B422CD3030A8B4211D30023FC
:1049E0009C464EE003460B433CD4002243088B42D6
:1049F00031D303098B421CD3030A8B4201D3944663
:104A00003FE0C3098B4201D3CB01C01A5241830955
:104A10008B4201D38B01C01A524143098B4201D30F
:104A20004B01C01A524103098B4201D30B01C01A3A
:104A30005241C3088B4201D3CB00C01A52418308B4
:104A40008B4201D38B00C01A524143088B4201D3E1
:104A50004B00C01A5241411A00D201465241104641
:104A600070475DE0CA0F00D04942031000D34042B6
:104A7000534000229C4603098B422DD3030A8B42EC
:104A800012D3FC22890112BA030A8B420CD389018A
:104A900092118B4208D3890192118B4204D3890170
:104AA0003AD0921100E08909C3098B4201D3CB01AE
:104AB000C01A524183098B4201D38B01C01A524163
:104AC00043098B4201D34B01C01A524103098B4267
:104AD00001D30B01C01A5241C3088B4201D3CB0052
:104AE000C01A524183088B4201D38B00C01A524135
:104AF000D9D243088B4201D34B00C01A5241411A0C
:104B000000D20146634652415B10104601D3404239
:104B1000002B00D54942704763465B1000D34042EA
:104B200001B50020C046C04602BD704770477047BF
:104B3000754600F025F8AE46050069465346C008A4
:104B4000C000854618B020B5FDF7F8FB60BC002713
:104B50004908B6460026C0C5C0C5C0C5C0C5C0C549
:104B6000C0C5C0C5C0C5403D49008D46704710B5A1
:104B70000446C046C0462046FBF7EDFA10BD0000D3
:104B8000004870471811002001491820ABBEFEE70D
:104B90002600020070470201110164281E01000076
:104BA0001201641E19010001130164281E01000096
:104BB0001401641E19010001150164281E01000082
:104BC0001601641E19010000210164190101000E83
:104BD0002201641910010027230164191001002724
:104BE0002401641910010027250064190101000E39
:104BF000260064190F0100013100641E010101014A
:104C0000320064280102010233006432010301030F
:104C10003400643C010401043500644601050105CB
:104C20003600645001060106110164370F01000FC0
:104C3000120164370F010010130164370F01000FD8
:104C4000140164370F010010150164370F02000FC3
:104C50001601641E0E010000210164280101000EEE
:104C6000220164281F0100002301641E0E010010B0
:104C7000240164281F0100002501641E0E0100109C
:104C8000260164281F0100003100641E010101019A
:104C9000320064280102010233006432010301037F
:104CA0003400643C0104010435006446010501053B
:104CB0003600645001060106110164630F01000F04
:104CC0001201646319010010130164630F01000FE6
:104CD0001401646319010010150164630F01000FD2
:104CE0001601646319010000210164420101000EF4
:104CF00022016442290100002301641E0E010010FC
:104D000024016442290100002501641E0E010010E7
:104D100026016442370100003100641E01010101D7
:104D200032006428010201023300643201030103EE
:104D30003400643C010401043500644601050105AA
:104D400036006450010601062CCB00006C4D0008B3
:104D500000000020B800000004010008244E0008F4
:104D6000B8000020C016000020010008006CDC0222
:104D7000000000000000000001020304060708090B
:104D8000010101010101010000000000000000001C
:104D90000000000000000000000000000000000013
:104DA0000000000000000000000000000000000003
:104DB00000000000000000000000000000000000F3
:104DC00000000000000000000000000000000000E3
:104DD00000000000000000000000000000000000D3
:104DE00000000000000100000100010000000000C0
:104DF00000000000000000000000000000000000B3
:104E000000000000000000000000000000000000A2
:104E1000000000000000000001020304010203047E
:044E20000607080970
:0400000508002329A3
:00000001FF
