:020000040800F2
:10000000280D002051180008BD010008BF0100089C
:1000100000000000000000000000000000000000E0
:10002000000000000000000000000000C101000806
:100030000000000000000000C3010008C501000826
:1000400063180008631800086318000863180008A4
:100050006318000863180008631800086318000894
:100060006318000863180008631800086318000884
:100070006318000863180008631800086318000874
:1000800063180008631800080000000063180008E7
:1000900063180008C7010008631800086318000807
:1000A0006318000863180008631800086318000844
:1000B000631800080000000063180008000000003A
:1000C00000F002F800F03EF80CA030C80838241800
:1000D0002D18A246671EAB4654465D46AC4201D180
:1000E00000F030F87E460F3E0FCCB6460126334274
:1000F00000D0FB1AA246AB4633431847C036000077
:10010000E0360000103A02D378C878C1FAD8520716
:1001100001D330C830C101D504680C6070470000BD
:100120000023002400250026103A01D378C1FBD813
:10013000520700D330C100D50B6070471FB51FBDFB
:1001400010B510BD03F02DFA1146FFF7F7FF00F0D0
:1001500025F803F045FA03B4FFF7F2FF03BC03F000
:100160004BFA000070B505460C46164602E00FCC6F
:100170000FC5103E102EFAD2082E02D303CC03C5B1
:10018000083E042E07D301CC01C5361F03E02178B9
:100190002970641C6D1C761EF9D270BD10B500F07C
:1001A0002BFE01F04CFB00220121034801F005FB6E
:1001B00001F0E8FA002010BD250300087047FEE7B3
:1001C00070477047704710B5064C0121204602F079
:1001D0004BFC002805D001F022FB0121204602F053
:1001E0004FFC10BD0044014010B547480168012292
:1001F000114301604168454A114041600168444A29
:10020000114001600168012292049143016041683C
:100210003F22120491434160C16A09090901C16288
:10022000016BFF22543291430163416B490849003D
:1002300041630021816000F02EF810BD70B5324D91
:1002400069680C2001403348334C03D0042901D0A5
:10025000082901D0206014E06A68696801239202CD
:100260001B04160F1940B61C002907D0E96A0907BC
:10027000090F491C03F0E5F87043EBE727484643B4
:100280002660686824490006000F091D085C216883
:10029000C140216070BD38B500201B4C0090206823
:1002A00001210904884320601D4801681022114380
:1002B000016001680122114301606068606060684C
:1002C000606060683F2109048843606060680521C0
:1002D000C90408436060052001F058FC2068012132
:1002E00009060843206020688001FCD5606880080A
:1002F00080006060606802210843606060680007F9
:10030000800F0228FAD138BD001002400CB8FFF867
:10031000FFFFF6FE00127A000000002000093D00F9
:100320000020024010B501F0C6F801F0A6F9F8224D
:100330001449154800F0A8FD4021144800F040FE83
:100340001248503800F0F3FD01221146104801F028
:1003500034FA032201210F4801F02FFA042201216F
:100360000D4801F02AFA022201210C4801F025FA79
:10037000002001F038FA10BD10B53221072001F03D
:100380003BFA10BD540500209403002054030020C4
:100390007D040008C3080008F1080008ED06000805
:1003A00010B500224378012104E0445CA218491CE6
:1003B00092B289B29942F8D3110AC154C01842705E
:1003C00010BDF8B5F74DF84800F0CCFD86B2002717
:1003D000F64C4FE0F44800F0BBFDA17A00293ED076
:1003E000E17A00292DD0217B6854491C2173607B60
:1003F000401E0006000E60733AD100226978012089
:1004000003E02B5C9A1892B2401C8842F9DB685CCE
:10041000691849780002401890420BD1E149F8224E
:100420008818FFF79FFEDF48F83000F09CFC0220A0
:1004300000F00BFDA772E772F821DA4802F0FFFF27
:1004400016E0411EF62908D2D64A217B505460732B
:100450000120E072491C21730AE0A77208E0FF281E
:1004600006D1D04908700120A072E772207367732B
:10047000761EB6B2002EADD10120F8BD10B5FF2416
:10048000CCB02D342146684602F0D9FFC64822463A
:100490006946903000F02EFD010002D0684600F061
:1004A00007FE1721012001F0A7F94CB010BDF3B5EC
:1004B00081B00198BD4F0D46012804D002280ED00E
:1004C000032819D122E0B948B8621030F862801DC3
:1004D0003863801D78631938B863C01C0BE0B348DB
:1004E000401CB8621130F862801D3863801D78634B
:1004F0001A38B863C01CF863B86A019C00783021D0
:10050000641E00264C4300280DD026E0A748801C1E
:10051000B8621230F862801D3863801D78631B3822
:10052000B863C01CE7E7FA6B117805290DD9C8003C
:100530002018401981780022019801F0A4F8B96AC6
:1005400004200870F86B067007E0C80020184019F6
:100550004378012B06D0491C1170B86A0078012835
:1005600008D02CE0C2788178019801F08CF8B96A43
:1005700001200870F86BF96A844600783223C000C5
:100580002018401902797D20C00042430888434367
:100590009A4212D1BA6B1078401C10700E80B96A62
:1005A00002200870604600780022C0002018401920
:1005B0008178019801F067F801E0401C08807B48D1
:1005C000826A1078022829D17848C16B806B09783B
:1005D0000778C900611849194B79BB4203D103213F
:1005E000117006701AE071488B79006B7D27FF004F
:1005F00084467B43008832274743BB420BD1CA78ED
:100600006A4C8978019801F03EF8206B0680A16A57
:1006100001200870FEBD6146401C08801178032946
:10062000F8D162483227C16B0A78D200A218521959
:10063000D3797D22D2005343426B10884743BB429B
:1006400014D15A4F0022B86B06700878C0002018E9
:1006500040198178019801F016F8F96B0878401C70
:100660000870B86A0670786B0680FEBD401C10806A
:10067000FEBD10B500224E4BFF21B5319C5C845469
:10068000521C8A42FADB01466D224A4800F0E1F929
:1006900010BD01780022491E322920D20021521CAF
:1006A00092B283189B78521C92B2012B17D88318F0
:1006B0009B78521C92B2002B11D083189B780A3B76
:1006C000512B0CD2521C92B283189B78521C92B2BE
:1006D000002B04D083189B785B1EFA2B00D3C8E74D
:1006E000D21C491C92B23629D9DB7047F0B5324F83
:1006F00000253878EDB0002853D12C4C607A0028C2
:1007000015D16D26B100684602F099FE3246694661
:10071000284800F0A9FA2448B20069469C30FFF747
:1007200021FD21489C30FFF7B4FF01206072607A00
:1007300001280BD100F005FBA0840A2000F055FB36
:10074000902000F0C9FD054605206072607A164EC3
:100750009C36052814D1A08C012804D0022807D08B
:1007600003280BD110E00F489022B11C903803E011
:100770000C4890221149903802F002FE022060726B
:10078000607A022806D01DE00C490648902290317C
:100790009038F1E7307846214843A84210D8042029
:1007A0000FE088E014010020040300201400002062
:1007B00006360008003C00085600002032040020E5
:1007C00003206072617A20460024042910D1C18977
:1007D00032228C46514372787D23DB005A4391428A
:1007E00003D1C4810621417202E06146491CC181E6
:1007F0000646407A062814D13078042805D170784E
:10080000042802D1B07804280FD033490120FFF723
:100810004EFE31490220FFF74AFE2F490320FFF721
:1008200046FE707A072806D011E0B471F471347274
:1008300007207072F5E7294829490088884202D2CA
:100840000820707203E0747234707470B470707A3F
:10085000032813D1708C322148432249884202D1A7
:100860007484012038701C48462100784843A8420F
:1008700003D9708C401C708400E074841A48407A5C
:10088000082818D10025FF26F536022000F0F5FDD6
:10089000304600F0AAFA002000F0EFFD304600F0EC
:1008A000A4FA6D1C032DF0DB0F48447204704470F1
:1008B0008470012038703221022000F09DFF6DB05D
:1008C000F0BD10B5094800F054FBFFF77AFD642134
:1008D000032000F091FF10BD840000206200002082
:1008E000AA0A000060EA00001400002004030020AF
:1008F000F8B53A4C0025A0780A2802D10120607092
:10090000A57060780926F60601280ED1012130462F
:1009100001F02FF8012802D1E078401CE070E07867
:100920000A2802D102206070E5706078002807D1A3
:100930000121304601F01DF8002805D06570A57032
:100940006078022804D044E0A078401CA070F7E74B
:10095000234824490088FF27F537884226D35022B0
:100960006421012000F08FFE50226421022000F05B
:100970008AFE50226421032000F085FE384600F0F4
:1009800034FA00226421012000F07DFE002264215F
:10099000022000F078FE00226421032000F073FEA4
:1009A0006570012000F069FD257012E0002602202C
:1009B00000F063FD384600F018FA002000F05DFDFD
:1009C000384600F012FA761C032EF0DB6570012029
:1009D00020701421042000F00FFFF8BD5600002005
:1009E00062000020AA0A000000B5BFB0FF226946DD
:1009F0000A7008224A7000228A700322CA700871A5
:100A0000020A4A71020C8A71000EC8716846FFF72B
:100A1000C7FC69464A78E948921C00F04BFA3FB09F
:100A200000BDF8B5FF270546B5373946E44802F062
:100A300004FDE44E0020E24C30803946204602F0AE
:100A4000FCFC287920706879607021780818308063
:100A5000F8BDF8B516460F460024054602F070F9B9
:100A6000352002F076FB284602F09BF9FF2E12D9C2
:100A700013E0A000395CC01942781202891882780C
:100A8000C0781204000610180918284602F0BBF9B5
:100A9000641CA4B22D1DB442EBD302F05AF92046D7
:100AA000F8BDF0B5FF268336C54DC64C8DB0112973
:100AB00033D0122946D013295CD021296DD02229A8
:100AC0007ED023297DD031297CD032297BD0332997
:100AD00021D1071DA8190C903021684602F0AFFC07
:100AE00000206A46397811542388401CC9187F1C9D
:100AF00021803028F6DB302269460C9802F040FC59
:100B00002088A919020A20310A7448746D22AC4960
:100B1000AD48FFF79EFF0DB0F0BD061D30216846C1
:100B2000AD1C02F08CFC00216846327842542388C8
:100B3000491CD218761C22803029F6DB014630226F
:100B4000284614E09E4E051D32363021684602F0DC
:100B500076FC002168462A7842542388491CD21822
:100B60006D1C22803029F6DB3022014640E002F085
:100B700007FCD0E7924E051D62363021684602F030
:100B80005EFC002168462A7842542388491CD2180A
:100B90006D1C22803029F6DBE6E7894E051D923672
:100BA0003021684602F04BFC002168462A78425406
:100BB0002388491CD2186D1C22803029F6DBD3E72C
:100BC00002E017E029E03AE07D4E051DC2363021F3
:100BD000684602F034FC00216A4628785054238885
:100BE000491CC0186D1C20803029F6DB3022694674
:100BF0003046BCE7724E051DF2363021684602F0E1
:100C00001EFC00216A46287850542388491CC018CD
:100C10006D1C20803029F6DBE8E7051D6B4E302186
:100C2000684602F00CFC002168462A78425423886A
:100C3000491CD2186D1C22803029F6DB94E7634EE4
:100C4000051D30363021684602F0F9FB0021684668
:100C50002A7842542388491CD2186D1C22803029DE
:100C6000F6DB81E70068704730B50023002907D024
:100C700004E09D0010C85B1C4C519BB29342F8D31A
:100C800030BD30B5FFB06D24ACB0A50029463EA8FC
:100C900002F0D5FB22463EA94B48FFF7E5FF2A4666
:100CA0003EA9474802F06CFBFF2069460870F62019
:100CB0004870002088700920C870414802780A7185
:100CC00042784A7102216A46801C03785418401CFD
:100CD000491C2371F229F8DB1046FFF761FB6846D7
:100CE000427869463548921C00F0E4F87FB02CB099
:100CF00030BD30B5BFB0FF2168460170C4214170DE
:100D0000002181700A21C1703049F2203039FF235F
:100D10006A46B33314180D78FF3C013C401C491C53
:100D2000A5749842F6DB1046FFF73AFB6846427816
:100D300069462248921C00F0BDF83FB030BD0078F3
:100D40007047234823494088884201D301207047D7
:100D5000AF218900401A19214901884201D202209D
:100D600070470320704710B5C17821291DD010DCD1
:100D700011291AD008DC04291AD005291BD006290C
:100D800001D1FFF7B6FF10BD12290ED01329FAD1F9
:100D90000BE0312909D004DC222906D02329F2D125
:100DA00003E0322901D03329EDD1FFF77AFE10BDDF
:100DB000FFF737FE10BDFFF764FF10BD940300205E
:100DC000A003002054000020003C0008C2040020C2
:100DD00062000020DC050000064908800028FDD1E3
:100DE000704710B500F01AF810BD10B500B200F051
:100DF0002CF810BD5A00002010B50420C04301F0AB
:100E000023F81E481C49006802F01BFB1C4940B235
:100E10007D220870D2005043488010BD184900223E
:100E20008A5618495043486100228A6108690123A3
:100E3000184308610869C30701D0C003FAD50869DF
:100E40004008400008618A6170470D4902228A5EAD
:100E50000C495043486100228A6108690123184304
:100E600008610869C30701D0C003FAD508694008C2
:100E7000400008618A61704700127A00000000207B
:100E80005C00002000E000E0816000218180C280E1
:100E9000418001807047002181804180018070473E
:100EA0008188C088814201D30120704700207047AB
:100EB00080887047F0B5C4888388A41AA34201DDF6
:100EC0000020F0BD00231D460DE00488C688B44212
:100ED00000D3058007888668CC5CF4550488641CC0
:100EE0005B1C04809BB29342EFD381888918818078
:100EF0000120F0BD70B58388934200D81A460023C4
:100F00001D460DE04488C688B44200D3458046881B
:100F10008468A45DCC544488641C5B1C44809BB2F0
:100F20009342EFD38188891A8180104670BD0022D8
:100F3000426402644021C26481647047026C81543F
:100F4000016C491C0164402901D1002101647047F2
:100F5000416C425C491C4164402901D1002141643B
:100F600010467047426C016C881A914200DA40309A
:100F7000704770B5044600F0A7F8A16C814201DB10
:100F80000D1A01E00D1A40350023A0640EE0C118CF
:100F9000402903DB01191846103002E001191846F8
:100FA0005030095C2046FFF7C9FF5B1CE06CAB4288
:100FB000EDDB4019E064402801DB4038E06470BD9F
:100FC000F3B5012193B0480400F0AEFE01210846BC
:100FD00000F0AAFE0121880300F0AFFE0926F60604
:100FE00001220321304600F0E2FC012202213046BA
:100FF00000F0DDFC0C2502206946009508710320F5
:10100000487100248C710120C871304600F063FCE7
:10101000E12040022F4F12940D900E940F941094E3
:101020000DA91195384600F03CFF2B4801F0DEFD7C
:101030002848802528300290102009944602039405
:10104000059406940795049008940A9402A90B96B7
:101050000C94214801F0FCFD1F48143001F0C6FD3E
:101060001C4805A924300290139803901498049406
:1010700031C120200A9018480894099402A90B96BF
:101080000C94143001F0E4FD0122C021384601F037
:10109000B7F811480121143001F003FE01210E4878
:1010A00001F0FFFD0121384600F06DFF15B0F0BDE5
:1010B000094A13685B085B001360D06051601068D8
:1010C0000121084310607047034810B5143001F047
:1010D000F4FD10BD003801401C0002401CB5012188
:1010E000480400F021FE03204002009001206946E0
:1010F000087188710022CA7148710920C00600F089
:10110000EAFB1CBD1CB5012080020090012069464D
:10111000087188710020C871032048710920C00639
:1011200000F0D9FB1CBD1CB50120800200900020FE
:101130006946087101228A71C8710320487109202B
:10114000C00600F0C8FB1CBD70B5FFF7DBFF012532
:10115000AD020920C00685616C1084610520FFF78F
:1011600040FE734E35810520FFF73BFE348170BD94
:1011700070B501246E48A402048160100925ED06B3
:10118000A8610520FFF72DFEAC610520FFF729FEC1
:1011900070BD70B5FFF7B6FF0120654C800220815D
:1011A00045100920C00685610520FFF71AFE25813C
:1011B0000520FFF716FE70BD10B5FFF7A3FF012154
:1011C00089020920C00681614C1084610520FFF767
:1011D00008FE574804810520FFF703FE10BD70B5D7
:1011E0000120002580020924E406A0610520FFF704
:1011F000F8FD01267602A6610520FFF7F2FDFFF754
:1012000092FF1420FFF7EDFD208AFFF77BFF0520FA
:10121000FFF7E7FD464806811920FFF7E2FD284663
:1012200070BDF8B509270024FF06012605467602A1
:101230002806404801D5B86101E03D4908816806AB
:10124000050E0520FFF7CDFDBE610520FFF7C9FDA6
:10125000374806810520FFF7C4FD641CE4B2082C62
:10126000E6D3F8BDF8B50024FFF75DFF01260025A1
:1012700076020927FF06BE610520FFF7B2FD600672
:10128000398A000E4905CC0F044329480681052000
:10129000FFF7A7FD6D1CEDB2082DECD32046F8BD7D
:1012A00010B5FFF71BFFFFF74FFF9020FFF7B9FFC7
:1012B000FFF795FF0120FFF7B4FFFFF790FFBE2077
:1012C000FFF7AFFFFFF78BFF8320FFF7AAFFFFF7C2
:1012D00086FFFFF74DFF10BD10B50446FFF734FF42
:1012E0002046FFF79EFFFFF77AFF0020FFF799FFE8
:1012F000FFF775FFFFF73CFFFFF726FF641CE0B226
:10130000FFF78FFFFFF76BFFFFF7ACFF0A4C207072
:10131000FFF73FFFFFF7A6FF6070FFF73AFFFFF709
:1013200027FF207861780002401880B210BD0000CD
:101330002000004800040000600000201FB50121CB
:10134000480400F0FAFC1521684601730024447338
:101350000121817303A800F04BFD8E487D21C90057
:10136000006802F06EF801906846048004814480B1
:10137000894C6946204600F0F7FF0121204601F024
:1013800070FB01221146204601F05AFB0121204644
:1013900001F05BF81FBD70B5012194B0480400F066
:1013A000C3FC122006900321684601770024C4770D
:1013B000092006A9C00600F08EFA0121480200F0BB
:1013C000BCFC0121084600F0AFFC744D284601F03A
:1013D000C5FE734E304601F009FC70480A94403057
:1013E00008907048099002200B9080200D904000DA
:1013F0000E9080000F90202010900C94000211900D
:1014000008A91294304601F023FC0121304601F076
:1014100048FC0221284601F080FF0121284601F006
:1014200072FF684601F0BBFE01216846009401711D
:1014300004200590029469460494284601F09CFE1D
:1014400007220221284601F017FF07221021284613
:1014500001F012FF284601F032FF0121284601F079
:10146000A6FE514C2846214601F067FF0028F9D01E
:10147000284601F040FF14B070BD10B54B4C002859
:1014800005D001280ED0022806D0032812D102214F
:10149000204600F080FA09E00121204600F07DFAA4
:1014A000022104E00221204600F077FA01212046C3
:1014B00000F071FA10BDFEB523200121400400F0B8
:1014C00033FC01204002009000246846047109208A
:1014D0006946C00600F0FFF9012509206946C006EB
:1014E000009500F0F8F902200090684605718471BB
:1014F000C47103262D4F46716946384600F0EBF95A
:1015000069463846009500F0E6F9202000906846CC
:1015100005718471C471467109206946C00600F0E6
:10152000DAF909202021C00600F037FA694638466A
:10153000009500F0D0F90020FFF79FFFFFF72BFF89
:10154000FFF7AEFEFEBD10B5012109204902C0061D
:1015500000F00FFA10BD10B509200121C00600F0FF
:1015600008FA10BD0120704770470120704770478E
:101570000120704770471CB50121880400F0D4FB9E
:1015800001200022694600900A71C871084800F0E5
:10159000A2F91CBD000000200044014000240140CD
:1015A0000800024062000020010000010014004811
:1015B00000040048F0B58DB00121022000F0C6FB08
:1015C0000121080200F0C2FB0121880400F0B5FBF4
:1015D0006548069065496846818200248483644E8C
:1015E000C48205A9304600F0BFFE624F05A9384607
:1015F00000F0BAFE05A9604800F0B6FE0125684675
:10160000858508A9384600F02AFF602168460180D8
:101610004580029484816946304600F046FF0821E7
:10162000304601F089F86946384600F03EFF08214F
:10163000384601F081F869464F4800F036FF08212E
:101640004D4801F079F80121304600F0E5FE012116
:10165000494800F0E1FE0121384600F0DDFE01219D
:10166000304600F0F2FE0121434800F0EEFE012179
:10167000384600F0EAFE0DB0F0BD10B500F042F8BB
:10168000FFF798FF10BD70B5164604463B4A481E4A
:1016900088B0904234D8642E32D83348401C01F0D0
:1016A000D0FE401E06903149684681820025858320
:1016B000C58206986421401C704301F0C2FE0146B9
:1016C0006022684602800122428002918581012CBD
:1016D00006D0022C07D0032C12D105A9264C04E019
:1016E00005A9234C01E0234C05A9204600F03CFE4F
:1016F0006946204600F0D9FE0821204601F01CF87A
:1017000008B070BD7CB523200121400400F00CFB23
:10171000022469460C7100208871C8710320487149
:101720000925ED0601220621284600F040F9402057
:1017300000906946284600F0CEF805220721284689
:1017400000F035F9802000906946284600F0C3F883
:101750000B4D00220121284600F029F96946284650
:10176000009400F0B8F87CBD7FBB0000E7030000E8
:10177000000400400048014000200040B70B00007A
:1017800000040048304D314C0026A660A1680C20B2
:10179000414348194279012A09D1C3888268D21885
:1017A00063689A4203D28660C68068588047A06802
:1017B000401CA0600A28E9D3E7E730B50C231446A3
:1017C000214D5C43631959711A7128510020D8804A
:1017D000986030BD092805D80C2250431A4A0121CF
:1017E000801841717047092805D80C225043164AC9
:1017F000002180184171704710B509280ED8134A8E
:1018000053680C225043104A84187D20C00048437E
:101810007D21C900A36001F014FEE08010BD0B48DB
:101820004168491C416001780A2904D100210170F6
:101830004188491C41800178491C0170704710B5EE
:10184000FFF77CFD10BD00004C0600206800002062
:101850000748804707480047FEE7FEE7FEE7FEE748
:10186000FEE7FEE704480549054A064B70470000BD
:10187000E9010008C100000828070020280D002009
:101880002809002028090020092110B5C90688422E
:1018900002D101214C0404E04D49884209D10121C3
:1018A0000402204600F05BFA0021204600F057FABF
:1018B00010BD4849884202D101210402F1E746499E
:1018C000884202D101210C05EBE744498842EFD15F
:1018D00001218C05E5E7F0B50022012423460D68BF
:1018E00093401D409D422AD10D79012D01D0022D3A
:1018F00012D1876855000326AE40B74387604E7902
:10190000AE4085682E43866085889D4385808588A6
:101910008B7993401D438580066855000323AB40B7
:101920009E4306600E790768AE403E430660C66877
:101930009E43C660CB79AB40C5682B43C360521C45
:10194000102ACBD3F0BD264901600021017102228B
:1019500042718171C1717047012208B512040A43B6
:101960000092C261C1610099C161C169C069009002
:1019700008BD0246128A00200A4200D001207047AA
:10198000008A70470246928A00200A4200D0012055
:101990007047808A70478161704701857047002ACF
:1019A00001D08161704701857047818270474B0784
:1019B000DB0E9A40C90810B589000818016A0F2487
:1019C0009C40A1430162016A1143016210BD000005
:1019D0000004004800080048000C004800140048BB
:1019E000FFFF0000F74801680122114301604168D0
:1019F000F54A114041600168F44A114001600168F4
:101A0000012292049143016041683F2212049143F4
:101A10004160C16A09090901C162016BFF225432A8
:101A200091430163416B4908490041630021816092
:101A30007047E44900228A7088707047034600208E
:101A4000E0495A090CD0012A0CD0022A0CD0496B6B
:101A5000DA06D20E012393400B4200D001207047DA
:101A60000968F5E7096AF3E7496AF1E718B5002064
:101A70000524240200901120FFF7E0FF0099491C83
:101A80000091A14201D00028F5D01120FFF7D6FF28
:101A9000002800D0012018BDCA4A1168F8239943D4
:101AA000C000084310607047C6490028086802D08B
:101AB0000122104301E04008400008607047C14A1D
:101AC000516BF8239943C000084350637047BD49E8
:101AD0000028486B02D00122104301E0400840007A
:101AE00048637047B74904220028486B01D09043EF
:101AF00000E0104348637047B2490A6A5208520036
:101B00000A620A6A04239A430A620A6A02430A6260
:101B10007047AC490A6A18239A430A620A6A024368
:101B20000A627047A7490028486A02D00122104380
:101B300001E0400840004862704710B5A14A536870
:101B40003D242404A3435360536808430343536074
:101B500010BD01229B4912060028086801D01043DD
:101B600000E0904308607047964AD16A090909016C
:101B70000143D162704701229249D20400280868CB
:101B800001D0104300E09043086070478D49C87150
:101B900070478C4A51688908890001435160704739
:101BA000884840680C2108407047864A5168F023F5
:101BB0009943014351607047824A516807231B02D1
:101BC00099430143516070477E494A6801239B0352
:101BD0009A434A604A6883B21A434A600A6B8B157B
:101BE0009A430A630A6B000C02430A637047754903
:101BF0000A6B40239A430A630A6B02430A637047E5
:101C000070490A6B10239A430A630A6B02430A6302
:101C100070476C490A6B920892000A630A6B024390
:101C20000A637047F8B5674D044668680C21684E32
:101C3000084003D0042801D0082801D0266012E013
:101C4000696868680122890212040F0F1040BF1CE6
:101C500000281CD0E86A0107090F3046491C01F032
:101C6000F0FB7843206068685A4B0006000F1A5C4E
:101C700020680146D14061606A685205520F9A5C43
:101C8000D140A1602A6BD20505D4534A09E05348DC
:101C900047432760E7E76A68520401D44A0800E036
:101CA0008A08E2602A6B53064D4A03D44C4B123328
:101CB000236100E022612B6BDB0601D4666100E04A
:101CC00060612B6B9B070FD0296B8907890F012956
:101CD0000CD0286B8007800F022809D0286BC043E6
:101CE000800700D1A661F8BDA161F8BDA061F8BD73
:101CF000A261F8BD33490A6A02430A62704731495A
:101D00000028374A086A01D0104300E09043086277
:101D1000704701222B4912040028086A01D01043A1
:101D200000E0904308627047264A0029516901D0BB
:101D3000014300E0814351617047224A00299169C3
:101D400001D0014300E08143916170471D4A0029A1
:101D5000D16901D0014300E08143D1617047194A44
:101D60000029916A01D0014300E0814391627047EC
:101D7000144A0029D16801D0014300E08143D160B9
:101D80007047104A0029116901D0014300E08143E6
:101D9000116170470B4A0029517A01D0014300E0DC
:101DA0008143517270470748416A0122120611436C
:101DB00041627047034A0146926800200A4200D0FF
:101DC00001207047001002400CB8FFF8FFFFF6FE3C
:101DD00000127A0074000020809FD50000093D00A9
:101DE0000080000001498872EBE70000001002400B
:101DF00030B5837801210278002B15D09408174B59
:101E0000A400E41823689207D50EFF22AA4093434A
:101E100042789207120EAA401A4322600078C00648
:101E2000C00E81400E4804E0D006C00E81400C4830
:101E30008030016030BD0B4A0029116901D0014397
:101E400000E08143116170470422074904280869B2
:101E500002D09043086170471043FBE700E400E0C4
:101E600000E100E000ED00E000E000E0F74910B51F
:101E7000884209D101218C032046FFF779FF002118
:101E80002046FFF775FF10BDF1498842FBD10121C3
:101E90004C042046FFF775FF00212046FFF771FF35
:101EA00010BD70B50446006888B00D46400840007B
:101EB00020606168032000038143A86808436060D4
:101EC0002168E448EA680140686810432A690A43C7
:101ED00010432060A0680321090288436969014317
:101EE000A1606846FFF79EFED848844201D106985B
:101EF00000E0029821680904296801D5490000E042
:101F000089001922504301F09CFA0546642101F032
:101F100098FA06013009642148432168281A090407
:101F200007D5C0006421323001F08BFA4007400F22
:101F300006E000016421323001F083FA0007000F4F
:101F40003043A08108B070BD4B21C9010160002160
:101F5000416081600C22C16002614161704710B52F
:101F600042680F231B029A4318C923430C6849682F
:101F70000C4323431343436010BD002101604160C3
:101F80008160C16070470029016802D001221143BD
:101F900001E04908490001607047002A026801D049
:101FA0000A4300E08A43026070470122D2030029FD
:101FB000016801D0114300E09143016070470122A4
:101FC000D2020029816801D0114300E09143816071
:101FD00070470122D2040029416801D0114300E07A
:101FE000914341607047012292040029416801D069
:101FF000114300E0914341607047002A426801D0DC
:102000000A4300E08A43426070470122D20300295C
:10201000416801D0114300E09143416070470122C3
:10202000D2050029416801D0114300E0914341608D
:1020300070474269120E1206426142690A434261C8
:102040007047028A120A12020282028A0A4302823C
:10205000704702220029016801D0114300E091433A
:1020600001607047826803231B059A43826082687F
:102070000A4382607047012212050029416801D09D
:10208000114300E0914341607047426803235B05C0
:102090009A43426042680A4342607047C169012224
:1020A000D2039143C1617047C905C90D01857047CD
:1020B000808CC005C00D704742681202120A42604F
:1020C000426809060A434260704701225203002910
:1020D000016801D0114300E091430160704702683C
:1020E0000123DB029A43026002680A4302607047E0
:1020F000426810239A43426042680A434260704734
:10210000426820239A43426042680A434260704713
:10211000012292030029416801D0114300E091435C
:102120004160704708220029816801D0114300E016
:10213000914381607047028AD2B20282028A090208
:102140000A430282704720220029816801D011438E
:1021500000E091438160704710220029816801D01E
:10216000114300E0914381607047826807235B045C
:102170009A438260826849040A43826070474269D8
:102180001202120A4261426909060A43426170471B
:10219000826804239A43826082680A43826070479F
:1021A00002220029816801D0114300E0914381603F
:1021B0007047012292030029816801D0114300E099
:1021C00091438160704782680123DB039A438260F8
:1021D00082680A438260704702681F235B059A4346
:1021E0000260026849050A430260704702681F23C3
:1021F0001B049A430260026809040A4302607047A4
:10220000002A826801D00A4300E08A438260704756
:10221000826801235B039A43826082680A4382607A
:10222000704710B50B041C0E01238B40022C02D00A
:10223000032C02D002E0001D00E008300168002AF3
:1022400001D0194300E09943016010BD00380140FE
:1022500000440040F3E9FFFF002A028B01D00A434B
:1022600000E08A4302837047826801231B039A437C
:10227000826082680A43826070470246D269002009
:102280000A4200D0012070470162704730B50A044D
:10229000130E0122144600258C40012B0ED0022B78
:1022A0000ED08368090C2340C0698A401040002B7F
:1022B00002D0002800D00125284630BD0368F1E790
:1022C0004368EFE70A0C012191400162704700006A
:1022D000F84910B5884202D10121C41430E001212F
:1022E0008907884206D101210846FFF74AFD0021EF
:1022F000012008E0F049884208D101210220FFF7BF
:1023000040FD00210220FFF73CFD10BDEB49884253
:1023100006D101211020FFF734FD00211020F2E743
:10232000E749884207D1841501212046FFF729FD9E
:1023300000212046E7E7E349884209D101210C0446
:102340002046FFF715FD00212046FFF711FD10BDC7
:10235000DD49884202D101214C04F1E7DB49884282
:10236000F5D101218C04EBE710B50288D14B9842DE
:1023700006D00124A407A04202D0CF4CA04203D132
:102380007024A2434C882243CC4CA04203D0D04CB2
:1023900022400C89224302804A68C2620A88028570
:1023A000984208D0C74A904205D0C74A904202D00E
:1023B000C64A904201D1897A01860121818210BDED
:1023C0000021C94341600021018001814180817267
:1023D0007047018582827047028870239A430A43BE
:1023E0000280704741627047C1627047406A70471F
:1023F000008D704702220029018801D0114300E0BE
:1024000091430180704704220029018801D01143C3
:1024100000E091430180704780220029018801D0AB
:10242000114300E0914301807047028808239A43DA
:10243000028002880A43028070470288A44B1A4037
:10244000028002880A43028070470029018802D076
:102450000122114301E0490849000180704710B58D
:102460000A884B88CC881A438B8823431A430B89EC
:102470001A434B8989891A430A434030828010BD30
:102480000021018041808180C18001814181818161
:10249000704740300029818803D00122D2031143C4
:1024A00001E04904490C8180704730B5028C520824
:1024B00052000284038C8288048B7025AC43A408EC
:1024C0000D88A40025430224A3438C891C434B8818
:1024D0002343784CA04208D07A4CA04205D07A4CD5
:1024E000A04202D0794CA0420DD10824A343CC894C
:1024F0001C4304239C438B882343754C22400C8A45
:1025000014434A8A22438280058389684163038495
:1025100030BD70B5028C10239A430284048C8288EB
:10252000038B6C4D2B400D782D062D0C1D43202365
:102530009C438B891B051E0C4B8826431B051B0CDB
:102540005C4C3343A04215D18024A343CC8924059D
:10255000240C1C4340239C438B881B051B0C2343EA
:102560005D4C22400C8AA404240C14434A8A920431
:10257000120C22438280058389688163038470BDC5
:1025800030B5028C554B1A400284038C8288848BB0
:102590007025AC43A4080D88A4002543504C23406B
:1025A0000C7B2406240C1C438B781B061B0C23433A
:1025B000404CA04215D14B4C23408C7B2406240C6C
:1025C0001C43494B1C400B791B061B0C2343474CF7
:1025D00022400C8A2405240C14434A8A1205120C4A
:1025E0002243828085838968C163038430BD30B50E
:1025F000028C3F4B1A400284048C8388828B354DB9
:102600002A400D782D062D0C15433A4A14400A7BBA
:102610001207120C22438C782407240C1443254AF9
:10262000904205D1344A13400A8A9205120C134392
:102630008380858389680164048430BD0021018022
:102640004180818081608181C181018241827047A6
:1026500030B5034618330124058C8C40A54305840E
:10266000002910D008290ED0091F0804400CC018FA
:10267000016807231B039943016001681206120CCD
:102680001143016030BD4808C018016870239943A8
:1026900001600168F4E74163704781637047C1637B
:1026A000704701647047028B70239A430A43028388
:1026B00070470000002C0140000400400010004062
:1026C000002000400040014000440140004801401B
:1026D000FFFC0000FF8C0000FFF30000FFFE000085
:1026E000FFFD0000FFF70000FFFB0000FFCF000030
:1026F000FFEF0000FFDF0000FFBF0000028BF64B82
:1027000009021A4011430183D2E7828B70239A4356
:102710000A438283CCE7828BEF4B09021A401143B4
:102720008183C5E70029818802D00122114301E09D
:10273000490849008180BBE7028B08239A430A437A
:102740000283B5E7028BE54B09021A40114301836E
:10275000AEE7828B08239A430A438283A8E7828BE1
:10276000DE4B09021A4011438183A1E7028B042347
:102770009A430A4302839BE7028BD94B09021A4012
:102780001143018394E7828B04239A430A43828393
:102790008EE7828BD24B09021A401143818387E76F
:1027A000028B80239A430A43028381E7028B5204FF
:1027B000520C0902114301837AE7828B80239A43EA
:1027C0000A43828374E7828B5204520C090211433C
:1027D00081836DE7028C02239A430A43028467E7F0
:1027E000028C08239A430A43028461E7028C202367
:1027F0009A430901114301845AE7028C80239A43CA
:1028000009011143018453E7028CB64B09021A40B7
:10281000114301844CE7028CB04B09021A4011436A
:10282000018445E7028CB04B09031A40114301842F
:102830003EE7028908239A43028102890A43028102
:1028400036E710B50123048C8B409C430484038C31
:102850008A401343038410BD10B50423048C8B40BD
:102860009C430484038C8A401343038410BD0422D8
:102870000029818801D0114300E09143818017E74E
:10288000828B9A4B1A408283828B09020A4382838D
:102890000EE7828B0C239A438283828B0A438283C6
:1028A00006E7028B914B1A400283028B09020A430E
:1028B0000283FDE6F0B5048C1026B4430484058B36
:1028C000048C8B4F1B0309013D402B4312021A431A
:1028D000A0239C430C43344302830484F0BD028B49
:1028E0000C239A430283028B0A430283E0E670B50D
:1028F000048C640864000484058B048C1B0113435E
:10290000F3260A22B54394432B430C4301210C4385
:102910000383048470BDF8B5044608884E888A880D
:102920000B890D4600281DD0042824D00828208CAF
:102930002AD0704908402084A08B278C31036C4E2C
:10294000120230400243180310436B4AA083174021
:102950000F43012109030F432784E9882046FFF72D
:102960008FFFF8BD31462046FFF7C1FFE9882046BA
:10297000FFF7B5FFF8BD31462046FFF79BFFE9881A
:102980002046FFF78EFFF8BD5C4908402084A18BEC
:10299000208C3702F3261B01B14313430B435849E4
:1029A000A3830840FF213843013108432084E9888C
:1029B0002046FFF76EFFF8BD002101804180012213
:1029C0008280C180018173E6F8B50C4649880026F3
:1029D00001250746002900D10226A288012A00D13C
:1029E0000225208823890028384610D0FFF762FF8F
:1029F000E1883846FFF755FF23892A463146384695
:102A0000FFF775FFE1883846FFF769FFF8BDFFF76C
:102A10006EFFE1883846FFF762FF23892A46314678
:102A20003846FFF747FFE1883846FFF73AFFF8BD21
:102A3000406B3DE6806B3BE6C06B39E6006C37E6E9
:102A4000002A828901D00A4300E08A4382812FE66E
:102A500081822DE60246128A00200A4200D001201F
:102A600026E6C943018223E60246138A00209289A2
:102A70000B400A40002B02D0002A00D0012017E6AC
:102A8000C943018214E611434030018110E6002A57
:102A9000828901D00A4300E08A43828108E6082245
:102AA0000029818801D0114300E091438180FFE536
:102AB0000189C908C9000181FAE5028970239A4396
:102AC0000A430281F4E510B50446FFF7F6FF2089BA
:102AD00007210843208110BDFF8F0000FFF7000091
:102AE000FFFB0000FFFD0000FFDF0000FFF3000020
:102AF000FF0C0000FFEF0000FF5F0000FFFE000082
:102B0000FFF5000070B516460D46044660290CD04E
:102B100001223146FFF7EBFE29462046FFF7CDFFA5
:102B2000208907210843208170BD01223146FFF72B
:102B3000C1FEF1E710B504891B021343E4B20B4355
:102B40002343038110BD10B50446FFF7F3FF20892E
:102B5000C108C9000720014370208143014321813E
:102B600010BD10B50446FFF7E5FF20890121890358
:102B70000843208110BD828870239A438280828816
:102B80000A43828094E50289D208D2000281028938
:102B90000A4302818CE5028980239A4302810289DB
:102BA0000A43028184E570B50689048B058CF6081A
:102BB000F6000E430C4906810C40FF2102310C4304
:102BC000AA218D431901114329430483018470BD57
:102BD00080220029818801D0114300E09143818047
:102BE00066E54030018263E5FCFC00000168454A6F
:102BF000114001600021016041608160C160424973
:102C0000414A0839904202D148680F2205E03E4A05
:102C10001432904204D14868F02210434860704753
:102C2000394A2832904203D148680F221202F4E751
:102C3000354A3C32904203D148680F221203ECE738
:102C4000314A50329042EAD148680F221204E4E738
:102C500030B503682D4A0C6A13408A684D692243D7
:102C60000C692C4322438C692243CC6922434C6A71
:102C700022438C6A22431A430260CA6842600A688F
:102C800082604968C16030BD00210160416081609F
:102C9000C160016141618161C16101624162816222
:102CA00070470029016802D00122114301E0154A52
:102CB00011400160704741607047406880B27047C2
:102CC000002A026801D00A4300E08A43026070478C
:102CD00001460D4A0020083A12680A4200D001203D
:102CE000704709490839486070470146064A002084
:102CF000083A12680A4200D0012070470249083998
:102D000048607047FEFF0000080002400F80FFFF90
:102D1000FE4A116849084900014311607047FB49A8
:102D200010220028086801D0104300E0904308609A
:102D30007047F64900200968890600D501207047D0
:102D4000F2480169090603D5F1494160F149416042
:102D50007047EE4801698022114301617047EB49D9
:102D60000420CA68D20701D001207047CA68D20681
:102D700001D502207047C9684907FBD50320704779
:102D800000B50346FFF7EBFF02E0FFF7E8FF5B1E2D
:102D9000012803D0002B00D1052000BD002BF4D169
:102DA000FAE7F0B50B2706463F043846FFF7E8FF81
:102DB00004280FD1D54C2069022528432061666183
:102DC00020694021084320613846FFF7D9FF216977
:102DD000A9432161F0BD70B50B252D042846FFF7EE
:102DE000CFFF04280ED1C94C20690426304320614E
:102DF00020694021084320612846FFF7C1FF21696F
:102E0000B143216170BDF8B5064600200B273F0491
:102E100000900D463846FFF7B3FF042815D1BB4C90
:102E2000206901210843206135803846FFF7A8FF5B
:102E3000042806D1B61C280C009630803846FFF7CF
:102E40009FFF2169490849002161F8BDF0B50B27B2
:102E500006463F040D463846FFF792FF04280CD182
:102E6000AA4C206901210843206135803846FFF7CC
:102E700087FF2169490849002161F0BDA348016924
:102E8000890503D4A2498160A249816070479F48A7
:102E9000016942159143016170479C480169012213
:102EA000520311430161704798490020C9694907DD
:102EB000890F00D001207047F0B5AA25FFF7F4FF75
:102EC000002800D000250B273F043846FFF758FFA5
:102ED000042813D18D4C20692026304320612069BD
:102EE0004021084320613846FFF74AFF102104289B
:102EF00005D0052802D022698A432261F0BD2069ED
:102F0000B043206120690E4630432061824805802D
:102F10003846FFF735FF0528F0D02169B14321611C
:102F2000F0BDF0B5C043C6B20004050E0B2000048E
:102F3000FFF726FF04281BD1744C2169102211438E
:102F40002161754FFF2E06D03E810B200004FFF754
:102F500017FF042806D1FF2D06D07D810B20000429
:102F6000FFF70EFF052803D0226910218A43226152
:102F7000F0BDF0B50B26074636043046FFF700FFDC
:102F800004281ED1614C2069202528432061206936
:102F90004021084320613046FFF7F2FE04280BD1A0
:102FA0002069A843206120691025284320615A48E0
:102FB00007803046FFF7E4FE052802D02169A943C7
:102FC0002161F0BDF0B505460B2094460F46000484
:102FD000FFF7D6FE042814D14C4C2069102630434C
:102FE00020613D4360460543F82005434A4845803B
:102FF0000B200004FFF7C4FE052802D02169B1436D
:103000002161F0BDF0B50B2705463F043846FFF7B8
:10301000B7FE042810D13D4C2069102630432061B2
:10302000EF2005433C4845803846FFF7A9FE0528B8
:1030300002D02169B1432161F0BDF0B50B270546EF
:103040003F043846FFF79CFE042810D12F4C20691E
:10305000102630432061DF2005432F484580384645
:10306000FFF78EFE052802D02169B1432161F0BD32
:10307000F0B50B2705463F043846FFF781FE0428CC
:1030800010D1224C2069102630432061BF20054317
:10309000214845803846FFF773FE052802D0216994
:1030A000B1432161F0BDF0B50B2705463F0438461A
:1030B000FFF766FE042810D1144C20691026304317
:1030C000206188200543144845803846FFF758FEA4
:1030D000052802D02169B1432161F0BDF0B5074652
:1030E0000B200E460004FFF74BFE042817D1074CB7
:1030F00020691025284320613E800B200004FFF743
:103100003FFE05280BD02169A94307E000200240BB
:1031100023016745AB89EFCD00F8FF1F2161F0BDAA
:103120000D48C0690004000E70470B48006A7047E4
:10313000094A0029116901D0014300E0814311616E
:103140007047054A0146D26800200A4200D001209B
:1031500070470149C860704700200240854910B59A
:10316000884208D1441501212046FEF701FE0021C6
:103170002046FEF7FDFD10BD30B5C3687E4A8C6861
:1031800013400A680D792243CC686D032C43224317
:103190000C69496922430A431A43C26030BD0021C9
:1031A000016001718160C160016141617047002966
:1031B000816801D0012200E0022211438160704742
:1031C000002A026901D00A4300E08A430261704785
:1031D0000122D2030029C16801D0114300E09143CC
:1031E000C1607047012292030029C16801D01143D8
:1031F00000E09143C16070470122D2050029C168F7
:1032000001D0114300E09143C160704709041143AC
:1032100001627047C2681F239B069A430A43C2603B
:103220007047012292050029C16801D0114300E0D6
:103230009143C160704701225049D2050028886837
:1032400001D0104300E090438860704701224B4951
:1032500092050028886801D0104300E09043886000
:1032600070470122454912060028886801D01043A2
:1032700000E0904388607047836A0B438362426139
:103280007047012252030029C16801D0114300E0B8
:103290009143C1607047012212040029C16801D026
:1032A000114300E09143C1607047012212030029DD
:1032B000C16801D0114300E09143C160704782684A
:1032C00000210123DB071A4382600F231B0382685E
:1032D000491CD20FD207994201D0002AF7D1816848
:1032E000002901DB006C70470020704781681022C4
:1032F00011438160704781680422114381607047E7
:10330000006C80B270470029C16802D001221143CD
:1033100001E049084900C1607047C26802239A432E
:10332000C260C2680A43C2607047002A426801D086
:103330000A4300E08A434260704702460020CB0106
:1033400004D5926801231B069A4300E012680A42E2
:1033500000D001207047016070470246536800208A
:1033600012680B400A4202D0002B00D001207047A7
:10337000016070470024014003D2FFFF0027014095
:10338000F8B5042A2CD3830712D00B78491C03709C
:10339000401C521E83070BD00B78491C0370401C45
:1033A000521E830704D00B78491C0370401C521E28
:1033B0008B079B0F05D0C91ADF002023DE1B08C92D
:1033C0000AE0FCF7CFFEF8BD1D4608C9FD401C46CB
:1033D000B4402C4310C0121F042AF5D2F308C91AB6
:1033E000521EF0D40B78491C0370401C521EEAD4C4
:1033F0000B78491C0370401C012AE4D40978017041
:10340000F8BD01E004C0091F0429FBD28B0701D5D8
:103410000280801CC90700D00270704700290BD0C1
:10342000C30702D00270401C491E022904D383073F
:1034300002D50280801C891EE3E70022EEE700220D
:10344000DFE7002203098B422CD3030A8B4211D3FE
:1034500000239C464EE003460B433CD40022430825
:103460008B4231D303098B421CD3030A8B4201D315
:1034700094463FE0C3098B4201D3CB01C01A5241AD
:1034800083098B4201D38B01C01A524143098B42FD
:1034900001D34B01C01A524103098B4201D30B01E6
:1034A000C01A5241C3088B4201D3CB00C01A52410B
:1034B00083088B4201D38B00C01A524143088B42D0
:1034C00001D34B00C01A5241411A00D20146524169
:1034D000104670475DE0CA0F00D04942031000D388
:1034E0004042534000229C4603098B422DD3030ADD
:1034F0008B4212D3FC22890112BA030A8B420CD3ED
:10350000890192118B4208D3890192118B4204D315
:1035100089013AD0921100E08909C3098B4201D395
:10352000CB01C01A524183098B4201D38B01C01ACF
:10353000524143098B4201D34B01C01A5241030946
:103540008B4201D30B01C01A5241C3088B4201D3F5
:10355000CB00C01A524183088B4201D38B00C01AA2
:103560005241D9D243088B4201D34B00C01A524179
:10357000411A00D20146634652415B10104601D306
:103580004042002B00D54942704763465B1000D390
:10359000404201B50020C046C04602BD704770479A
:1035A0007047754600F024F8AE460500694653465C
:1035B000C008C000854618B020B5FEF753F960BCBE
:1035C00000274908B6460026C0C5C0C5C0C5C0C54D
:1035D000C0C5C0C5C0C5C0C5403D49008D46704787
:1035E00010B50446C046C0462046FCF7B4FD10BDE9
:1035F00000487047C406002001491820ABBEFEE712
:103600002600020070470105110164320101010129
:10361000120164320101010113016432010101014F
:10362000140164320101010115016432010101013B
:10363000160164320101010121016432010101011D
:1036400022016432010101012301643201010101FF
:1036500024016432010101012501643201010101EB
:1036600026016432010101013101643201010101CD
:1036700032016432010101013301643201010101AF
:10368000340164320101010135016432010101019B
:1036900036016432010101011101643201010101AD
:1036A00012016432010101011301643201010101BF
:1036B00014016432010101011501643201010101AB
:1036C000160164320101010121016432010101018D
:1036D000220164320101010123016432010101016F
:1036E000240164320101010125016432010101015B
:1036F000260164320101010131016432010101013D
:10370000320164320101010133016432010101011E
:10371000340164320101010135016432010101010A
:10372000360164320101010111016432010101011C
:10373000120164320101010113016432010101012E
:10374000140164320101010115016432010101011A
:1037500016016432010101012101643201010101FC
:1037600022016432010101012301643201010101DE
:1037700024016432010101012501643201010101CA
:1037800026016432010101013101643201010101AC
:10379000320164320101010133016432010101018E
:1037A000340164320101010135016432010101017A
:1037B000360164320101010128350000DC370008C0
:1037C00000000020840000000401000860380008A8
:1037D00084000020A40C000020010008006CDC0222
:1037E00000000000000000000102030406070809B1
:1037F00000000000000000000000000000000000C9
:1038000000000000000000000000000000000000B8
:1038100000000000000000000000000000000000A8
:103820000000000000000000000000000000000098
:103830000000010000000000000000000000000087
:103840000000000000000000000000000000000078
:103850000000000001020304010203040607080936
:040000050800185186
:00000001FF
