:020000040800F2
:10000000680F0020891E0008C5010008C70100080C
:1000100000000000000000000000000000000000E0
:10002000000000000000000000000000C9010008FE
:100030000000000000000000CB010008CD01000816
:100040009B1E00089B1E00089B1E00089B1E0008AC
:100050009B1E0008B70C00089B1E00089B1E000892
:100060009B1E00089B1E00089B1E00089B1E00088C
:100070009B1E00089B1E00089B1E00089B1E00087C
:100080009B1E00089B1E0008000000009B1E00082D
:100090009B1E0008CF0100089B1E00089B1E000845
:1000A0009B1E00089B1E00089B1E00089B1E00084C
:1000B0009B1E0008000000009B1E000800000000BE
:1000C00000F002F800F03EF80CA030C80838241800
:1000D0002D18A246671EAB4654465D46AC4201D180
:1000E00000F030F87E460F3E0FCCB6460126334274
:1000F00000D0FB1AA246AB4633431847883F0000A6
:10010000A83F0000103A02D378C878C1FAD8520745
:1001100001D330C830C101D504680C6070470000BD
:100120000023002400250026103A01D378C1FBD813
:10013000520700D330C100D50B6070471FB51FBDFB
:1001400010B510BD03F091FE1146FFF7F7FF00F068
:1001500025F803F0A9FE03B4FFF7F2FF03BC03F098
:10016000AFFE000070B505460C46164602E00FCC07
:100170000FC5103E102EFAD2082E02D303CC03C5B1
:10018000083E042E07D301CC01C5361F03E02178B9
:100190002970641C6D1C761EF9D270BD10B501F07B
:1001A000F7F801F069FE00F034FE00F0A8FD00222F
:1001B0000121034801F029FE01F00CFE002010BDD2
:1001C0005D0300087047FEE770477047704710B541
:1001D000064C0121204602F063FF002805D001F003
:1001E00046FE0121204602F067FF10BD0044014099
:1001F00010B5474801680122114301604168454A32
:10020000114041600168444A1140016001680122C7
:1002100092049143016041683F221204914341607E
:10022000C16A09090901C162016BFF22543291437D
:100230000163416B4908490041630021816000F07E
:100240002EF810BD70B5324D69680C20014033485E
:10025000334C03D0042901D0082901D0206014E0D8
:100260006A686968012392021B04160F1940B61CC4
:10027000002907D0E96A0907090F491C03F045FD69
:100280007043EBE727484643266068682449000628
:10029000000F091D085C2168C140216070BD38B5A0
:1002A00000201B4C00902068012109048843206035
:1002B0001D480168102211430160016801221143A9
:1002C0000160606860606068606060683F21090488
:1002D0008843606060680521C904084360600520A8
:1002E00001F070FF206801210906084320602068A2
:1002F0008001FCD560688008800060606068022131
:100300000843606060680007800F0228FAD138BD9A
:10031000001002400CB8FFF8FFFFF6FE00127A0052
:100320000000002000093D000020024070B5044696
:100330000D46094803F066FC204603F066FC28469B
:1003400003F066FC03F067FC03F06CFC70BD10B5B5
:1003500003F061FC10BD00005555000010B501F020
:10036000CCFB01F0B2FCF82219491A4801F058F808
:100370004021194801F0F0F81748503801F0A3F86F
:1003800005220121154801F040FD062201211448F3
:1003900001F03BFD03220121124801F036FD042249
:1003A0000121114801F031FD022201210F4801F025
:1003B0002CFD012211460E4801F027FD002001F01E
:1003C0003AFD10BD10B53221092001F03DFD10BDF0
:1003D000DF0500208C0300204C0300200D050008E1
:1003E000D30B00084B0E00085509000869060008E9
:1003F000BB050008FB480121017041708170C1708C
:100400000021017141718171018341838183C18325
:10041000018441848184C18401854185C171017257
:1004200041728172C1720173704710B50022437826
:10043000012104E0445CA218491C92B289B299429D
:10044000F8D3110AC154C018427010BDF8B5E64D7A
:10045000E64801F053F886B20027E24C52E0E34848
:1004600001F042F8217C002941D0617C00292ED086
:10047000A17C6854491CA174E07C401E0006000E5B
:10048000E0743DD100226978012003E02B5C9A18CA
:1004900092B2401C8842F9DB685C69184978000216
:1004A000401890420BD1FF22CF492D328818FFF718
:1004B00059FECF4800F01AFF022000F092FF277487
:1004C000FF2167742D31C84803F01DFC18E0FF229E
:1004D000411E2B32914208D2C34AA17C5054E07491
:1004E00001206074491CA1740AE0277408E0FF2809
:1004F00006D1BD490870012020746774A074E774A8
:10050000761EB6B2002EAAD10120F8BD10B5FF2488
:10051000CCB02D342146684603F0F5FBB3482246A3
:100520006946903000F0B2FF010005D0684601F046
:100530008CF81E2000F055FF1E21052001F084FCE0
:100540004CB010BD30B5A74A012906D0022908D009
:10055000032911D0062909D113E0A24952633C3185
:1005600003E0A049491C51633F319164516BA14B99
:100570000C78012C0AD00EE09A49891C5163423153
:10058000F3E79849C91C51633531EEE7956C1C6857
:100590002C6000240C701B6801241D189D4202D29F
:1005A000002805D007E0926C12689A1A824202D3A2
:1005B0000C70012030BD002030BD70B5894CA07B8F
:1005C00000284CD1E07B0226012806D025462E3596
:1005D000022806D0032842D115E001F059F9E6734C
:1005E0000DE0902001F070F9288001F035F928889D
:1005F0008149884201D80120A0730320E073A07BC9
:10060000012805D02BE0902001F05EF96880E4E736
:1006100000226421012001F05EFB002264210220FF
:1006200001F059FB00226421032001F054FB002457
:10063000FF25F535022001F042FA284600F0A1FE20
:10064000002001F03CFA284600F09BFEFFF77FFEF9
:10065000641C032CEEDB00F0DCFB00F050FB0F21F0
:10066000012001F0F1FB70BD10B500F02DFE5D4AD8
:1006700000235075917D88421AD0117D052902D042
:10068000491C117515E090751375FFF7B3FE537390
:1006900000226421012001F01EFB002264210220BF
:1006A00001F019FB00226421032001F014FB00E09B
:1006B00013751421022001F0C7FB10BDF3B581B002
:1006C0000198484C0E46012804D002280FD0032878
:1006D0001AD124E04348001DE06416302065801DD7
:1006E0006065801DA0651F38E065C01C0BE03D48BB
:1006F000401DE06417302065801D6065801DA06589
:100700002038E065C01C20663C48012700780025A1
:10071000002811D0E06C0078002822D033E0314866
:10072000801DE06418302065801D6065801DA06517
:100730002138E065C01CE6E7314800220770657388
:10074000E06C64210570206D0580606D0580A06DF2
:100750000580E06D0570206E0570019801F0BBFA10
:10076000FEBD206E31780078491E884210DDC00041
:100770008019C1780022019801F0ADFAE16C0420E3
:100780000870206E0570E06C0078012809D03DE00B
:10079000C00080190279C178019801F09CFAE06CE0
:1007A0000770206E7D210078C900C0008019407953
:1007B00048430199FFF7C6FE002823D0E16D0022CF
:1007C0000878401C0870206D0580E16C02200870DC
:1007D000206E0078C0008019C178019801F07BFA82
:1007E00014E0000014000020A4000020FC020020FF
:1007F000D00100208C0000204F1C00007B00002056
:100800007A000020206D0188491C0180E06C84463C
:100810000078022822D1206EE16D00780A78C000AD
:10082000801983799A4204D10320624610700D70BA
:1008300014E0C0797D21C90048430199FFF782FE89
:1008400000280BD0206E0078C00080190279C17892
:10085000019801F040FAE06C0770FEBDE06C007892
:100860000328FAD1206E7D210078C900C0008019CC
:10087000007A48430199FFF765FE0028EDD0062075
:100880006073E06D00220570206E0078C000801952
:10089000C178019801F01FFA216E0878401C087099
:1008A000E06C0570FEBD10B50022D04BFF21B531C4
:1008B0009C5C8454521C8A42FADB01466D22CC486F
:1008C00000F06BFB10BD01780022491E322920D2B6
:1008D0000021521C92B283189B78521C92B2012BB9
:1008E00017D883189B78521C92B2002B11D0831812
:1008F0009B785B1F5F2B0CD2521C92B283189B78A3
:10090000521C92B2002B04D083189B785B1EFA2BEA
:1009100000D3C8E7D21C491C92B23629D9DB7047F4
:10092000F0B5002501232C46E60072185278012A02
:100930000BD10022B718CF5DC7545B1C521CD2B23A
:10094000DBB2082AF6D36D1CEDB2641C062CEBDB7F
:100950000570F0BDF0B5A748EDB00078002873D160
:10096000A54CA64E607B0025002804D0052816D093
:10097000012844D055E06D27B900684603F0C3F95B
:100980003A4669469A4800F02FFCBA0069469B48EF
:10099000FFF7E8FB9948FFF796FF052060733121C8
:1009A000974803F0B0F996483121313003F0A9F9A6
:1009B00093483121623003F0A4F9607D012804D00E
:1009C000022806D003280AD12FE09022B11C6846E5
:1009D00003E08A4990229231684603F035F969466E
:1009E0008748FFF79DFF86480CA93130FFF798FF35
:1009F000834818A96230FFF793FF01206073A08D30
:100A00000A21804A4143914214D17A49A5850120A7
:100A100008706573002001F052F800F0FAF900F058
:100A20006EF9607B03281AD02BE075499022923929
:100A30006846D2E7704932782E31498846235A43B6
:100A4000914202D2401CA085B6E0AF20C000A5852F
:100A5000814202D9042060734EE0032060736A482B
:100A6000007800280BD070787D21C900484306210A
:100A7000FFF768FD002804D00620607304E025839A
:100A80009AE0607B06281DD12079042805D1607981
:100A9000042802D1A079042818D057482E30418864
:100AA000AF20C000814217D855490120FFF706FE4C
:100AB000534902203131FFF701FE514903206231D1
:100AC000FFF7FCFD607B042816D049E0A572E572B3
:100AD00025730720607349E000226421012001F0A2
:100AE000FAF800226421022001F0F5F800226421C6
:100AF000032001F0F0F8ADE7022000F0E0FF00264F
:100B0000FF27F53700226421012001F0E4F80022DC
:100B10006421022001F0DFF800226421032001F0AB
:100B2000DAF8384600F02DFC32226421012001F071
:100B3000D2F832226421022001F0CDF83222642161
:100B4000032001F0C8F8384600F01BFCFFF7FFFB5C
:100B5000761CF6B2052ED5D300F05BF900F0CFF885
:100B6000607B072802D0082807D025E027482849BD
:100B70000088884228D2082060730027FF26F536B7
:100B8000022000F09CFF304600F0FBFB002000F04C
:100B900096FF304600F0F5FBFFF7D9FB7F1C032FD3
:100BA000EEDB6573257165711249A571012008702E
:100BB00000F02FF900F0A3F8FFF7C9FB0A21042089
:100BC00001F042F96DB0F0BD657325716571A571D5
:100BD000F2E70A4810B59C3800F097FCFFF736FCA6
:100BE0006421062001F030F910BD0000CE3E00085F
:100BF000007800087A0000201400002098030020EC
:100C00004C05002060EA00007B00002086000020E8
:100C1000AA0A000030B5232085B00121400401F06C
:100C20009FFB0121480401F0ADFB0121084601F0C2
:100C3000A0FB01240025684600940571C5710221BE
:100C4000417109206946C00601F061F9002108469A
:100C500002F0B4FF6846029405730C21417384735B
:100C600002A802F023FF05216846017444748474CD
:100C700004A801F0D9FB05B030BD10B50924E40685
:100C80000121204601F091F9002801D0002010BD7B
:100C90001E2000F0A6FB0121204601F086F9002865
:100CA000EED10A2000F09DFB0121204601F07DF9E4
:100CB0000128F6D110BD10B5012002F041FF002837
:100CC00019D0FFF7DAFF002815D08C4841780029A9
:100CD00009D0002300218A4A4370002B05D00170FF
:100CE0000223837004E00123F4E701230370817081
:100CF0001170FFF77FFB012002F01FFF10BD10B540
:100D000080490420FFF712FB7F490020086000F0B3
:100D10003FFB01F0B1F8FFF76BFAFFF71FFB10BDC7
:100D2000F0B523208FB00121400401F019FB032509
:100D30006846029545730126067300248473734F39
:100D4000C67302A9384601F0E2F80321384601F0E3
:100D50003EF912200C9008A80575C47509200CA94D
:100D6000C00601F0D4F80021694802F0B6FA694FD4
:100D70000021384602F053FE0021384602F0A3FD60
:100D80000C2004906846457504750227C775092034
:100D900004A9C00601F0BBF85D480021503002F004
:100DA0009CFA5B4800213C3002F097FA00215A4837
:100DB00001F005FC68020690684645770477C47721
:100DC000092006A9C00601F0A2F82020089008A872
:100DD00045710471C47101460920C00601F097F8FD
:100DE000C02000906846457106718471C771092062
:100DF0006946C00601F08BF808A80A974573067388
:100E000084736846C7710AA9444801F080F80FB09E
:100E1000F0BD10B5424900200870424A012111700E
:100E2000364A117036490870FFF7E4FAFFF7F2FE10
:100E300000F004FDFFF774FF0121080701F0A2FA9A
:100E40000121084602F0BAFA10BDF8B52B4CA07883
:100E5000002803D1FFF7DDFFFFF751FFA07802283C
:100E600046D1314831490088FF260127F5368842AE
:100E700027D3012000F023FE50226421012000F03E
:100E80002AFF50226421022000F025FF5022642115
:100E9000032000F020FF304600F073FA00226421A6
:100EA000012000F018FF00226421022000F013FF4F
:100EB00000226421032000F00EFFA77000202070A4
:100EC00016E00025022000F0FAFD304600F059FA45
:100ED000002000F0F4FD304600F053FAFFF737FA37
:100EE0006D1C032DEEDB2770FFF793FFFFF707FF65
:100EF0001421032000F0A8FFF8BD00007A000020B4
:100F000021000020E20400008C00002000140048B2
:100F10000800024000240140004400400004004852
:100F2000220000202300002086000020AA0A0000E2
:100F300000B5CBB0FF2269460A7008224A70002231
:100F40008A700322CA700871020A4A71020C8A71FF
:100F5000000EC8716846FFF768FA69464A78F74894
:100F6000921C00F073FA4BB000BDF8B5FF270546A0
:100F7000B5373946F24802F0C4FEF24E0020F04C7C
:100F800030803946204602F0BCFE2879207068790E
:100F90006070217808183080F8BDF8B516460F4605
:100FA0000024054602F058FA352002F05EFC28467F
:100FB00002F083FAFF2E12D913E0A000395CC019A9
:100FC0004278120289188278C0781204000610183C
:100FD0000918284602F0A3FA641CA4B22D1DB442DD
:100FE000EBD302F042FA2046F8BDF0B5FF26833677
:100FF000D34DD44C8DB0112936D0122949D01329A4
:101000005FD0212975D022296FD023296ED03129B4
:101010006DD032296CD0332924D1071DA8190C902A
:101020003021684602F06FFE00206A46397811547C
:101030002388401CC9187F1C21803028F6DB302211
:1010400069460C9802F000FE2088A919020A203196
:101050000A7448746D22BA49BB48FFF79EFFBB492A
:10106000012008700DB0F0BD061D30216846AD1C92
:1010700002F049FE00216846327842542388491C18
:10108000D218761C22803029F6DB01463022284611
:1010900014E0AB4E051D32363021684602F033FEB7
:1010A000002168462A7842542388491CD2186D1CB6
:1010B00022803029F6DB3022014666E002F0C4FDD2
:1010C000D0E79F4E051D62363021684602F01BFEB8
:1010D000002168462A7842542388491CD2186D1C86
:1010E00022803029F6DBE6E703E015E027E039E06F
:1010F0004DE0934E051D92363021684602F003FE06
:10110000002168462A7842542388491CD2186D1C55
:1011100022803029F6DBCEE7894E051DC23630210C
:10112000684602F0F0FD002168462A784254238880
:10113000491CD2186D1C22803029F6DBBBE7804E9B
:10114000051DF2363021684602F0DDFD00216846BB
:101150002A7842542388491CD2186D1C22803029D9
:10116000F6DBA8E7051D7A4E3021684602F0CBFD7C
:1011700000216A46287850542388491CC0186D1CE9
:1011800020803029F6DB30226946304696E7704EE3
:10119000051D30363021684602F0B5FD0021684655
:1011A0002A7842542388491CD2186D1C2280302989
:1011B000F6DB80E77CB5FF216846017005214170B0
:1011C000002484700821614DC17029780171FFF7F6
:1011D0002CF96846427869465848921C00F036F966
:1011E0002C707CBD0068704730B50023002907D003
:1011F00004E09D0010C85B1C4C519BB29342F8D395
:1012000030BD30B5FFB06D24BAB0A50029464BA85B
:1012100002F079FD22464BA94B48FFF7E5FF2A462D
:101220004BA9474802F010FD4548FFF74CFBFF2053
:1012300069460870F6204870002088700920C87040
:101240003F4802780A7142784A7102216A46801C3E
:1012500003785418401C491C2371F229F8DB10460E
:10126000FFF7E3F86846427869463448921C00F07C
:10127000EDF87FB03AB030BD30B5CBB0FF21684655
:101280000170C4214170002181700A21C170304970
:10129000F2203039FF236A46B33314180D78FF3C2F
:1012A000013C401C491CA5749842F6DB1046FFF730
:1012B000BCF86846427869462048921C00F0C6F89F
:1012C0004BB030BD0078704722482349408888429F
:1012D00001D301207047AF218900401A192149012B
:1012E000884201D2022070470320704710B5C178B0
:1012F00013291FD010DC072933D008DC04292DD096
:10130000052931D0062901D1FFF7B6FF10BD1129FB
:1013100010D01229FAD10DE031290BD006DC212999
:1013200008D0222906D02329F0D103E0322901D0A8
:101330003329EBD1FFF759FE10BD00008C030020CC
:10134000D706002078000020007800087D000020EB
:10135000F907002086000020DC050000FFF705FEED
:10136000EAE7FFF727FFE7E7FFF74BFFE4E70000B7
:10137000064908800028FDD1704710B500F01AF822
:1013800010BD10B500B200F02CF810BD7E0000209A
:1013900010B50420C04301F073F81E481C490068D2
:1013A00002F0B3FC1C4940B27D220870D2005043C9
:1013B000488010BD184900228A5618495043486198
:1013C00000228A6108690123184308610869C3077C
:1013D00001D0C003FAD508694008400008618A615D
:1013E00070470D4902228A5E0C4950434861002231
:1013F0008A6108690123184308610869C30701D09D
:10140000C003FAD508694008400008618A61704746
:1014100000127A00000000208000002000E000E0C0
:10142000816000218180C28041800180704700215D
:1014300081804180018070478188C088814201D3CA
:10144000012070470020704780887047F0B5C4883D
:101450008388A41AA34201DD0020F0BD00231D46AD
:101460000DE00488C688B44200D3058007888668EA
:10147000CC5CF4550488641C5B1C04809BB29342D2
:10148000EFD38188891881800120F0BD70B58388F1
:10149000934200D81A4600231D460DE04488C688B2
:1014A000B44200D3458046888468A45DCC54448807
:1014B000641C5B1C44809BB29342EFD38188891AE1
:1014C0008180104670BD0022426402644021C264E3
:1014D00081647047026C8154016C491C016440298D
:1014E00001D1002101647047416C425C491C416498
:1014F000402901D10021416410467047426C016CC3
:10150000881A914200DA4030704770B5044600F006
:10151000A8F8A16C814201DB0D1A01E00D1A4035DB
:101520000023A0640EE0C118402903DB011918460E
:10153000103002E0011918465030095C2046FFF7D0
:10154000C9FF5B1CE06CAB42EDDB4019E064402856
:1015500001DB4038E06470BDF3B501214C0493B069
:10156000204600F0FDFE0121084600F0F9FE0121B1
:10157000204600F007FF0926F60601220321304627
:1015800000F031FD01220221304600F02CFD0C2537
:1015900002206946009508710320487100248C716F
:1015A0000120C871304600F0B2FCE1204002304F0B
:1015B00012940D900E940F9410940DA91195384625
:1015C00000F08BFF2B4801F02DFE294880252830A4
:1015D00002901020099446020394059406940795FE
:1015E000049008940A9402A90B960C94214801F0E7
:1015F0004BFE2048143001F015FE1D4805A924308B
:101600000290139803901498049431C120200A90FA
:1016100018480894099402A90B960C94143001F010
:1016200033FE0122C021384601F006F9114801219C
:10163000143001F052FE01210E4801F04EFE01214E
:10164000384600F0BCFF15B0F0BD0A4A13685B08CD
:101650005B001360D0605160106801210843106086
:101660007047044810B5143001F043FE10BD00006F
:1016700000440040440002401CB50121480400F031
:101680006FFE0320400200900120694608718871B6
:101690000022CA7148710920C00600F038FC1CBD48
:1016A0001CB50120800200900120694608718871F4
:1016B0000020C871032048710920C00600F027FCF3
:1016C0001CBD1CB5012080020090002069460871F5
:1016D00001228A71C871032048710920C00600F0F8
:1016E00016FC1CBD70B5FFF7DBFF0125AD0209201C
:1016F000C00685616C1084610520FFF73EFE884EB0
:1017000035810520FFF739FE348170BD70B50124A5
:101710008348A402048160100925ED06A861052014
:10172000FFF72BFEAC610520FFF727FE70BD70B5FB
:10173000FFF7B6FF01207A4C800220814510092076
:10174000C00685610520FFF718FE25810520FFF7FB
:1017500014FE70BD10B5FFF7A3FF01218902092017
:10176000C00681614C1084610520FFF706FE6C48BD
:1017700004810520FFF701FE10BD70B50120002592
:1017800080020924E406A0610520FFF7F6FD01268A
:101790007602A6610520FFF7F0FDFFF792FF142007
:1017A000FFF7EBFD208AFFF77BFF0520FFF7E5FD44
:1017B0005B4806811920FFF7E0FD284670BDF8B5AB
:1017C00009270024FF06012605467602280655480B
:1017D00001D5B86101E0524908816806050E05206F
:1017E000FFF7CBFDBE610520FFF7C7FD4C48068122
:1017F0000520FFF7C2FD641CE4B2082CE6D3F8BD57
:10180000F8B50024FFF75DFF0126002576020927C1
:10181000FF06BE610520FFF7B0FD6006398A000EA5
:101820004905CC0F04433E4806810520FFF7A5FD7E
:101830006D1CEDB2082DECD32046F8BD10B5FFF7B6
:101840001BFFFFF74FFF0020FFF7B9FFFFF795FFE2
:101850000620FFF7B4FF10BD10B5FFF70DFFFFF72F
:1018600041FF9020FFF7ABFFFFF787FF0120FFF755
:10187000A6FFFFF782FFBE20FFF7A1FFFFF77DFF66
:101880008320FFF79CFFFFF778FFFFF73FFF10BDB6
:1018900010B5FFF7F1FEFFF725FF9020FFF78FFF50
:1018A000FFF76BFF0120FFF78AFFFFF766FFD420E9
:1018B000FFF785FFFFF761FF8320FFF780FFFFF74A
:1018C0005CFFFFF723FF10BD10B50446FFF70AFFCA
:1018D0002046FFF774FFFFF750FF0020FFF76FFF70
:1018E000FFF74BFFFFF712FFFFF7FCFE641CE0B2AF
:1018F000FFF765FFFFF741FFFFF782FF0A4C2070FB
:10190000FFF715FFFFF77CFF6070FFF710FFFFF791
:10191000FDFE207861780002401880B210BD000002
:101920002000004800040000840000201FB50121B1
:10193000480400F01EFD152168460173002444731D
:101940000121817303A800F06FFDA5487D21C90026
:10195000006802F0DAF9019068460480048144804E
:10196000A04C6946204601F01BF80121204601F0F9
:1019700094FB01221146204601F07EFB0121204606
:1019800001F07FF81FBD7CB502200090012469465C
:101990000C7100208871C8710320934D487128464E
:1019A00000F0B5FA69462846009400F0B0FA7CBD14
:1019B0001CB5202000900120694608710020887124
:1019C000C871032009244871E406204600F09FFAFC
:1019D0002021204600F0FDFA1CBD70B5012194B015
:1019E000480400F0BDFC12200690032168460177F0
:1019F0000024C477092006A9C00600F088FA012156
:101A0000480200F0B6FC0121084600F0A9FC774D21
:101A1000284601F02FFF764E304601F003FC734854
:101A20000A94403008907348099002200B9080205F
:101A30000D9040000E9080000F90202010900C948C
:101A40000002119008A91294304601F01DFC0121FA
:101A5000304601F042FC0221284601F0EAFF012154
:101A6000284601F0DCFF684601F025FF01216846A9
:101A7000009401710420059002946946049428465C
:101A800001F006FF07220221284601F081FF07220C
:101A90001021284601F07CFF284601F09CFF01211F
:101AA000284601F010FF544C2846214601F0D1FF92
:101AB0000028F9D0284601F0AAFF14B070BD10B577
:101AC000494C002805D001280ED0022806D0032852
:101AD00012D10221204600F07AFA09E001212046C5
:101AE00000F077FA022104E00221204600F071FAAA
:101AF0000121204600F06BFA10BDFEB52320012124
:101B0000400400F02DFC01204002009000246846B3
:101B1000047109206946C00600F0F9F90125092081
:101B20006946C006009500F0F2F902200090684670
:101B300005718471C47103262B4F4671694638467E
:101B400000F0E5F969463846009500F0E0F92020FC
:101B50000090684605718471C47146710920694618
:101B6000C00600F0D4F909202021C00600F031FAA7
:101B700069463846009500F0CAF90020FFF79FFF3C
:101B8000FFF72BFFFFF768FEFFF79EFB1B4908706E
:101B9000FEBD10B5012109204902C00600F005FA7A
:101BA00010BD10B509200121C00600F0FEF910BDDE
:101BB000012070477047012070477047012070472F
:101BC00070471CB50121880400F0CAFB01200022E7
:101BD000694600900A71C871094800F098F91CBD67
:101BE000000000200044014000140048002401408F
:101BF0000800024086000020010000012A000020A9
:101C000000040048F0B58DB00121022000F0BAFBBD
:101C10000121080200F0B6FB0121880400F0A9FBB5
:101C20006548069065496846818200248483644E35
:101C3000C48205A9304600F0B3FE624F05A93846BC
:101C400000F0AEFE05A9604800F0AAFE0125684636
:101C5000858508A9384600F01EFF6021684601808E
:101C60004580029484816946304600F03AFF08219D
:101C7000304601F07DF86946384600F032FF082111
:101C8000384601F075F869464F4800F02AFF0821F0
:101C90004D4801F06DF80121304600F0D9FE0121D8
:101CA000494800F0D5FE0121384600F0D1FE01215F
:101CB000304600F0E6FE0121434800F0E2FE01213B
:101CC000384600F0DEFE0DB0F0BD10B500F042F871
:101CD000FFF798FF10BD70B5164604463B4A481EF4
:101CE00088B0904234D8642E32D83348401C02F079
:101CF0000CF8401E06903149684681820025858394
:101D0000C58206986421401C704301F0FEFF014625
:101D10006022684602800122428002918581012C66
:101D200006D0022C07D0032C12D105A9264C04E0C2
:101D300005A9234C01E0234C05A9204600F030FE04
:101D40006946204600F0CDFE0821204601F010F83B
:101D500008B070BD7CB523200121400400F000FBD9
:101D6000022469460C7100208871C87103204871F3
:101D70000925ED0601220621284600F034F940200D
:101D800000906946284600F0C2F80522072128463F
:101D900000F029F9802000906946284600F0B7F845
:101DA0000B4D00220121284600F01DF96946284606
:101DB000009400F0ACF87CBD7FBB0000E70300009E
:101DC000000400400048014000200040B70B000024
:101DD000000400482A4D2B4C0026666061680C20E8
:101DE000414348194279012A09D1C3888268D2182F
:101DF00023689A4203D28660C6806858804760682C
:101E0000401C60600A28E9D3E7E730B50C2314468C
:101E10001B4D5C43631959711A7128510020D880F9
:101E2000986030BD092805D80C225043144A01217E
:101E3000801841717047092805D80C225043104A78
:101E4000002180184171704710B509280ED80D4A3D
:101E500013680C2250430A4A84187D20C00048436E
:101E60007D21C900A36001F050FFE08010BD05484E
:101E70000168491C0160704710B5FFF757FD10BDA0
:101E80008C0800208C000020074880470748004746
:101E9000FEE7FEE7FEE7FEE7FEE7FEE7044805494A
:101EA000054A064B70470000F1010008C100000818
:101EB00068090020680F0020680B0020680B0020D4
:101EC000092110B5C906884202D101214C0404E061
:101ED0004D49884209D101210402204600F05BFAF5
:101EE0000021204600F057FA10BD4849884202D12F
:101EF00001210402F1E74649884202D101210C0583
:101F0000EBE744498842EFD101218C05E5E7F0B5C4
:101F10000022012423460D6893401D409D422AD192
:101F20000D79012D01D0022D12D1876855000326AD
:101F3000AE40B74387604E79AE4085682E438660D9
:101F400085889D43858085888B7993401D43858056
:101F5000066855000323AB409E4306600E79076870
:101F6000AE403E430660C6689E43C660CB79AB4038
:101F7000C5682B43C360521C102ACBD3F0BD264941
:101F8000016000210171022242718171C1717047AB
:101F9000012208B512040A430092C261C16100998E
:101FA000C161C169C069009008BD0246128A002063
:101FB0000A4200D001207047008A70470246928A88
:101FC00000200A4200D001207047808A704781615A
:101FD000704701857047002A01D0816170470185F3
:101FE0007047818270474B07DB0E9A40C90810B5D5
:101FF00089000818016A0F249C40A1430162016A0C
:102000001143016210BD00000004004800080048B0
:10201000000C004800140048FFFF0000F74801686A
:102020000122114301604168F54A11404160016895
:10203000F44A114001600168012292049143016059
:1020400041683F22120491434160C16A09090901B4
:10205000C162016BFF22543291430163416B490815
:1020600049004163002181607047E44900228A7081
:102070008870704703460020E0495A090CD0012AB5
:102080000CD0022A0CD0496BDA06D20E0123934001
:102090000B4200D0012070470968F5E7096AF3E7B1
:1020A000496AF1E718B500200524240200901120A8
:1020B000FFF7E0FF0099491C0091A14201D00028E0
:1020C000F5D01120FFF7D6FF002800D0012018BD61
:1020D000CA4A1168F8239943C0000843106070474A
:1020E000C6490028086802D00122104301E04008D8
:1020F000400008607047C14A516BF8239943C00003
:10210000084350637047BD490028486B02D0012244
:10211000104301E04008400048637047B74904227B
:102120000028486B01D0904300E01043486370479B
:10213000B2490A6A520852000A620A6A04239A43A0
:102140000A620A6A02430A627047AC490A6A1823A3
:102150009A430A620A6A02430A627047A749002842
:10216000486A02D00122104301E040084000486262
:10217000704710B5A14A53683D242404A34353601B
:10218000536808430343536010BD01229B49120664
:102190000028086801D0104300E0904308607047B1
:1021A000964AD16A090909010143D16270470122A7
:1021B0009249D2040028086801D0104300E09043FF
:1021C000086070478D49C87170478C4A516889080A
:1021D0008900014351607047884840680C210840DD
:1021E0007047864A5168F023994301435160704714
:1021F000824A516807231B0299430143516070478B
:102200007E494A6801239B039A434A604A6883B225
:102210001A434A600A6B8B159A430A630A6B000CD7
:1022200002430A63704775490A6B40239A430A6365
:102230000A6B02430A63704770490A6B10239A4382
:102240000A630A6B02430A6370476C490A6B92087F
:1022500092000A630A6B02430A637047F8B5674D40
:10226000044668680C21684E084003D0042801D059
:10227000082801D0266012E0696868680122890296
:1022800012040F0F1040BF1C00281CD0E86A010781
:10229000090F3046491C01F038FD7843206068681A
:1022A0005A4B0006000F1A5C20680146D14061605D
:1022B0006A685205520F9A5CD140A1602A6BD20520
:1022C00005D4534A09E0534847432760E7E76A6863
:1022D000520401D44A0800E08A08E2602A6B5306DF
:1022E0004D4A03D44C4B1233236100E022612B6B27
:1022F000DB0601D4666100E060612B6B9B070FD0A9
:10230000296B8907890F01290CD0286B8007800F62
:10231000022809D0286BC043800700D1A661F8BD10
:10232000A161F8BDA061F8BDA261F8BD33490A6A98
:1023300002430A62704731490028374A086A01D0CF
:10234000104300E090430862704701222B491204B9
:102350000028086A01D0104300E0904308627047EB
:10236000264A0029516901D0014300E081435161AF
:102370007047224A0029916901D0014300E081435E
:10238000916170471D4A0029D16901D0014300E0E5
:102390008143D1617047194A0029916A01D00143F4
:1023A00000E0814391627047144A0029D16801D04E
:1023B000014300E08143D1607047104A0029116950
:1023C00001D0014300E08143116170470B4A0029AD
:1023D000517A01D0014300E08143517270470748B0
:1023E000416A01221206114341627047034A0146C5
:1023F000926800200A4200D001207047001002407D
:102400000CB8FFF8FFFFF6FE00127A0094000020DF
:10241000809FD50000093D000080000001498872BE
:10242000EBE700000010024030B58378012102780C
:10243000002B15D09408174BA400E41823689207CA
:10244000D50EFF22AA40934342789207120EAA406B
:102450001A4322600078C006C00E81400E4804E096
:10246000D006C00E81400C488030016030BD0B4A60
:102470000029116901D0014300E0814311617047D7
:10248000042207490428086902D090430861704774
:102490001043FBE700E400E000E100E000ED00E0B5
:1024A00000E000E0F74910B5884209D101218C0312
:1024B0002046FFF779FF00212046FFF775FF10BD8A
:1024C000F1498842FBD101214C042046FFF775FFFA
:1024D00000212046FFF771FF10BD70B5044600686B
:1024E00088B00D464008400020606168032000036A
:1024F0008143A868084360602168E448EA680140B5
:10250000686810432A690A4310432060A0680321C9
:102510000902884369690143A1606846FFF79EFE8E
:10252000D848844201D1069800E002982168090445
:10253000296801D5490000E089001922504301F0C3
:10254000E4FB0546642101F0E0FB0601300964214B
:1025500048432168281A090407D5C0006421323095
:1025600001F0D3FB4007400F06E000016421323048
:1025700001F0CBFB0007000F3043A08108B070BD15
:102580004B21C90101600021416081600C22C160C2
:1025900002614161704710B542680F231B029A43E4
:1025A00018C923430C6849680C4323431343436011
:1025B00010BD0021016041608160C1607047002949
:1025C000016802D00122114301E04908490001607D
:1025D0007047002A026801D00A4300E08A43026083
:1025E00070470122D2030029016801D0114300E0A5
:1025F0009143016070470122D2020029816801D015
:10260000114300E09143816070470122D204002908
:10261000416801D0114300E09143416070470122BD
:1026200092040029416801D0114300E091434160C8
:102630007047002A426801D00A4300E08A434260A2
:1026400070470122D2030029416801D0114300E004
:102650009143416070470122D2050029416801D0B1
:10266000114300E09143416070474269120E120627
:10267000426142690A4342617047028A120A1202A9
:102680000282028A0A4302827047022200290168FC
:1026900001D0114300E09143016070478268032339
:1026A0001B059A43826082680A4382607047012258
:1026B00012050029416801D0114300E091434160B7
:1026C0007047426803235B059A43426042680A43AD
:1026D00042607047C1690122D2039143C1617047D2
:1026E000C905C90D01857047808CC005C00D7047B4
:1026F00042681202120A4260426809060A434260B6
:102700007047012252030029016801D0114300E003
:1027100091430160704702680123DB029A43026023
:1027200002680A4302607047426810239A4342607D
:1027300042680A4342607047426820239A434260DD
:1027400042680A43426070470122920300294168AF
:1027500001D0114300E091434160704708220029F5
:10276000816801D0114300E0914381607047028A83
:10277000D2B20282028A09020A43028270472022F0
:102780000029816801D0114300E0914381607047C6
:1027900010220029816801D0114300E0914381603B
:1027A0007047826807235B049A4382608268490409
:1027B0000A438260704742691202120A426142690A
:1027C00009060A4342617047826804239A43826083
:1027D00082680A438260704702220029816801D022
:1027E000114300E091438160704701229203002968
:1027F000816801D0114300E0914381607047826895
:102800000123DB039A43826082680A438260704737
:1028100002681F235B059A430260026849050A4368
:102820000260704702681F231B049A43026002681B
:1028300009040A4302607047002A826801D00A43F3
:1028400000E08A4382607047826801235B039A43F9
:10285000826082680A438260704710B50B041C0EC8
:1028600001238B40022C02D0032C02D002E0001D79
:1028700000E008300168002A01D0194300E09943C4
:10288000016010BD0038014000440040F3E9FFFF43
:10289000002A028B01D00A4300E08A43028370477A
:1028A000826801231B039A43826082680A43826024
:1028B00070470246D26900200A4200D001207047CA
:1028C0000162704730B50A04130E01221446002538
:1028D0008C40012B0ED0022B0ED08368090C2340B4
:1028E000C0698A401040002B02D0002800D001258A
:1028F000284630BD0368F1E74368EFE70A0C012181
:102900009140016270470000F84910B5884202D139
:102910000121C41430E001218907884206D1012138
:102920000846FFF74AFD0021012008E0F0498842EF
:1029300008D101210220FFF740FD00210220FFF70E
:102940003CFD10BDEB49884206D101211020FFF764
:1029500034FD00211020F2E7E749884207D18415B1
:1029600001212046FFF729FD00212046E7E7E34942
:10297000884209D101210C042046FFF715FD0021F2
:102980002046FFF711FD10BDDD49884202D101212B
:102990004C04F1E7DB498842F5D101218C04EBE7D7
:1029A00010B50288D14B984206D00124A407A0425A
:1029B00002D0CF4CA04203D17024A2434C882243C2
:1029C000CC4CA04203D0D04C22400C892243028040
:1029D0004A68C2620A880285984208D0C74A904273
:1029E00005D0C74A904202D0C64A904201D1897AA6
:1029F00001860121818210BD0021C943416000216F
:102A00000180018141808172704701858282704717
:102A1000028870239A430A430280704741627047DC
:102A2000C1627047406A7047008D704702220029DA
:102A3000018801D0114300E09143018070470422D6
:102A40000029018801D0114300E0914301807047C3
:102A500080220029018801D0114300E091430180C8
:102A60007047028808239A43028002880A43028042
:102A700070470288A44B1A40028002880A430280F1
:102A800070470029018802D00122114301E0490862
:102A900049000180704710B50A884B88CC881A43DA
:102AA0008B8823431A430B891A434B8989891A431C
:102AB0000A434030828010BD002101804180818026
:102AC000C180018141818181704740300029818826
:102AD00003D00122D203114301E04904490C818053
:102AE000704730B5028C520852000284038C8288F1
:102AF000048B7025AC43A4080D88A4002543022450
:102B0000A3438C891C434B882343784CA04208D0B4
:102B10007A4CA04205D07A4CA04202D0794CA04217
:102B20000DD10824A343CC891C4304239C438B88E8
:102B30002343754C22400C8A14434A8A22438280E4
:102B4000058389684163038430BD70B5028C10230E
:102B50009A430284048C8288038B6C4D2B400D7841
:102B60002D062D0C1D4320239C438B891B051E0C19
:102B70004B8826431B051B0C5C4C3343A04215D1EC
:102B80008024A343CC892405240C1C4340239C436C
:102B90008B881B051B0C23435D4C22400C8AA4042C
:102BA000240C14434A8A9204120C22438280058327
:102BB00089688163038470BD30B5028C554B1A401F
:102BC0000284038C8288848B7025AC43A4080D8812
:102BD000A4002543504C23400C7B2406240C1C43AA
:102BE0008B781B061B0C2343404CA04215D14B4C49
:102BF00023408C7B2406240C1C43494B1C400B793E
:102C00001B061B0C2343474C22400C8A2405240C32
:102C100014434A8A1205120C2243828085838968F4
:102C2000C163038430BD30B5028C3F4B1A4002842F
:102C3000048C8388828B354D2A400D782D062D0C0F
:102C400015433A4A14400A7B1207120C22438C782F
:102C50002407240C1443254A904205D1344A1340DA
:102C60000A8A9205120C1343838085838968016464
:102C7000048430BD00210180418081808160818198
:102C8000C18101824182704730B503461833012467
:102C9000058C8C40A5430584002910D008290ED04E
:102CA000091F0804400CC018016807231B0399433F
:102CB000016001681206120C1143016030BD480822
:102CC000C01801687023994301600168F4E741630B
:102CD000704781637047C163704701647047028B1E
:102CE00070239A430A43028370470000002C01407E
:102CF000000400400010004000200040004001405F
:102D00000044014000480140FFFC0000FF8C00002F
:102D1000FFF30000FFFE0000FFFD0000FFF70000D2
:102D2000FFFB0000FFCF0000FFEF0000FFDF00000F
:102D3000FFBF0000028BF64B09021A4011430183CA
:102D4000D2E7828B70239A430A438283CCE7828B3B
:102D5000EF4B09021A4011438183C5E7002981889E
:102D600002D00122114301E0490849008180BBE7FC
:102D7000028B08239A430A430283B5E7028BE54B93
:102D800009021A4011430183AEE7828B08239A435C
:102D90000A438283A8E7828BDE4B09021A40114363
:102DA0008183A1E7028B04239A430A4302839BE7B2
:102DB000028BD94B09021A401143018394E7828B9D
:102DC00004239A430A4382838EE7828BD24B090203
:102DD0001A401143818387E7028B80239A430A4379
:102DE000028381E7028B5204520C090211430183D2
:102DF0007AE7828B80239A430A43828374E7828B2B
:102E00005204520C0902114381836DE7028C0223A4
:102E10009A430A43028467E7028C08239A430A43D1
:102E2000028461E7028C20239A4309011143018443
:102E30005AE7028C80239A4309011143018453E726
:102E4000028CB64B09021A40114301844CE7028CF4
:102E5000B04B09021A401143018445E7028CB04B84
:102E600009031A40114301843EE7028908239A436B
:102E7000028102890A43028136E710B50123048CDE
:102E80008B409C430484038C8A401343038410BD0D
:102E900010B50423048C8B409C430484038C8A402B
:102EA0001343038410BD04220029818801D01143FB
:102EB00000E09143818017E7828B9A4B1A4082830E
:102EC000828B09020A4382830EE7828B0C239A438A
:102ED0008283828B0A43828306E7028B914B1A40DE
:102EE0000283028B09020A430283FDE6F0B5048CDB
:102EF0001026B4430484058B048C8B4F1B030901FB
:102F00003D402B4312021A43A0239C430C433443FD
:102F100002830484F0BD028B0C239A430283028B4C
:102F20000A430283E0E670B5048C640864000484FC
:102F3000058B048C1B011343F3260A22B5439443EB
:102F40002B430C4301210C430383048470BDF8B56B
:102F5000044608884E888A880B890D4600281DD0B3
:102F6000042824D00828208C2AD0704908402084C6
:102F7000A08B278C31036C4E1202304002431803A1
:102F800010436B4AA08317400F43012109030F43ED
:102F90002784E9882046FFF78FFFF8BD3146204699
:102FA000FFF7C1FFE9882046FFF7B5FFF8BD3146BE
:102FB0002046FFF79BFFE9882046FFF78EFFF8BD0C
:102FC0005C4908402084A18B208C3702F3261B012A
:102FD000B14313430B435849A3830840FF213843AF
:102FE000013108432084E9882046FFF76EFFF8BDD1
:102FF00000210180418001228280C180018173E62D
:10300000F8B50C464988002601250746002900D15D
:103010000226A288012A00D10225208823890028BF
:10302000384610D0FFF762FFE1883846FFF755FFBA
:1030300023892A4631463846FFF775FFE18838462E
:10304000FFF769FFF8BDFFF76EFFE1883846FFF72D
:1030500062FF23892A4631463846FFF747FFE18859
:103060003846FFF73AFFF8BD406B3DE6806B3BE624
:10307000C06B39E6006C37E6002A828901D00A432A
:1030800000E08A4382812FE681822DE60246128A81
:1030900000200A4200D0012026E6C943018223E62F
:1030A0000246138A002092890B400A40002B02D06E
:1030B000002A00D0012017E6C943018214E611431B
:1030C0004030018110E6002A828901D00A4300E0E5
:1030D0008A43828108E608220029818801D01143B1
:1030E00000E091438180FFE50189C908C9000181A1
:1030F000FAE5028970239A430A430281F4E510B588
:103100000446FFF7F6FF208907210843208110BD00
:10311000FF8F0000FFF70000FFFB0000FFFD000035
:10312000FFDF0000FFF30000FF0C0000FFEF0000D6
:10313000FF5F0000FFFE0000FFF5000070B51646BF
:103140000D46044660290CD001223146FFF7EBFE04
:1031500029462046FFF7CDFF20890721084320811B
:1031600070BD01223146FFF7C1FEF1E710B50489B9
:103170001B021343E4B20B432343038110BD10B57C
:103180000446FFF7F3FF2089C108C9000720014367
:10319000702081430143218110BD10B50446FFF723
:1031A000E5FF2089012189030843208110BD828821
:1031B00070239A43828082880A43828094E5028940
:1031C000D208D200028102890A4302818CE5028979
:1031D00080239A43028102890A43028184E570B503
:1031E0000689048B058CF608F6000E430C4906810F
:1031F0000C40FF2102310C43AA218D4319011143D8
:1032000029430483018470BD80220029818801D074
:10321000114300E09143818066E54030018263E51F
:10322000FCFC00000168454A11400160002101607A
:1032300041608160C1604249414A0839904202D1EF
:1032400048680F2205E03E4A1432904204D1486893
:10325000F022104348607047394A2832904203D127
:1032600048680F221202F4E7354A3C32904203D1FB
:1032700048680F221203ECE7314A50329042EAD1FB
:1032800048680F221204E4E730B503682D4A0C6A3F
:1032900013408A684D6922430C692C4322438C6990
:1032A0002243CC6922434C6A22438C6A22431A434C
:1032B0000260CA6842600A6882604968C16030BDC5
:1032C0000021016041608160C160016141618161F3
:1032D000C16101624162816270470029016802D0C8
:1032E0000122114301E0154A11400160704741601D
:1032F0007047406880B27047002A026801D00A43D4
:1033000000E08A430260704701460D4A0020083AF7
:1033100012680A4200D00120704709490839486004
:1033200070470146064A0020083A12680A4200D057
:10333000012070470249083948607047FEFF0000CD
:10334000080002400F80FFFF10B501210C07204646
:10335000FFF733F800212046FFF72FF810BD304962
:103360008A150028086801D0104300E090430860E7
:1033700070472B4A1168E02399430143116070475D
:10338000274910220028086801D0104300E090432C
:1033900008607047224A0029516801D0014300E0CB
:1033A0008143516070471F490A6904239A430A61A7
:1033B000012801D020BF704730BF7047184B1A68F2
:1033C0009208920002431A601648036904221343CC
:1033D0000361012904D020BF016991430161704755
:1033E00030BFF9E70E48026804210A430260026810
:1033F00002231A4302600B4802690A43026130BF8C
:103400007047074A0146526800200A4200D0012056
:10341000704703490A68800002430A607047000051
:103420000070004000ED00E0FE4A116849084900C4
:10343000014311607047FB4910220028086801D041
:10344000104300E0904308607047F6490020096887
:10345000890600D501207047F2480169090603D5A5
:10346000F1494160F14941607047EE4801698022AD
:10347000114301617047EB490420CA68D20701D0AB
:1034800001207047CA68D20601D502207047C9687A
:103490004907FBD50320704700B50346FFF7EBFF54
:1034A00002E0FFF7E8FF5B1E012803D0002B00D1EC
:1034B000052000BD002BF4D1FAE7F0B50B27064636
:1034C0003F043846FFF7E8FF04280FD1D54C2069A8
:1034D000022528432061666120694021084320615C
:1034E0003846FFF7D9FF2169A9432161F0BD70B5C6
:1034F0000B252D042846FFF7CFFF04280ED1C94C19
:10350000206904263043206120694021084320615E
:103510002846FFF7C1FF2169B143216170BDF8B5AD
:10352000064600200B273F0400900D463846FFF763
:10353000B3FF042815D1BB4C206901210843206149
:1035400035803846FFF7A8FF042806D1B61C280CA2
:10355000009630803846FFF79FFF216949084900EF
:103560002161F8BDF0B50B2706463F040D463846ED
:10357000FFF792FF04280CD1AA4C206901210843CF
:10358000206135803846FFF787FF216949084900E7
:103590002161F0BDA3480169890503D4A249816076
:1035A000A249816070479F480169421591430161BA
:1035B00070479C4801690122520311430161704721
:1035C00098490020C9694907890F00D00120704738
:1035D000F0B5AA25FFF7F4FF002800D000250B273F
:1035E0003F043846FFF758FF042813D18D4C20695B
:1035F000202630432061206940210843206138465D
:10360000FFF74AFF1021042805D0052802D02269BF
:103610008A432261F0BD2069B043206120690E46D3
:1036200030432061824805803846FFF735FF052882
:10363000F0D02169B1432161F0BDF0B5C043C6B2FD
:103640000004050E0B200004FFF726FF04281BD101
:10365000744C2169102211432161754FFF2E06D051
:103660003E810B200004FFF717FF042806D1FF2D31
:1036700006D07D810B200004FFF70EFF052803D044
:10368000226910218A432261F0BDF0B50B2607465E
:1036900036043046FFF700FF04281ED1614C206934
:1036A00020252843206120694021084320613046BD
:1036B000FFF7F2FE04280BD12069A843206120699E
:1036C0001025284320615A4807803046FFF7E4FE62
:1036D000052802D02169A9432161F0BDF0B5054656
:1036E0000B2094460F460004FFF7D6FE042814D1A1
:1036F0004C4C20691026304320613D436046054311
:10370000F82005434A4845800B200004FFF7C4FE1B
:10371000052802D02169B1432161F0BDF0B50B2726
:1037200005463F043846FFF7B7FE042810D13D4C4C
:103730002069102630432061EF2005433C48458036
:103740003846FFF7A9FE052802D02169B14321615F
:10375000F0BDF0B50B2705463F043846FFF79CFE49
:10376000042810D12F4C2069102630432061DF201F
:1037700005432F4845803846FFF78EFE052802D0C6
:103780002169B1432161F0BDF0B50B2705463F0427
:103790003846FFF781FE042810D1224C20691026FC
:1037A00030432061BF200543214845803846FFF75C
:1037B00073FE052802D02169B1432161F0BDF0B547
:1037C0000B2705463F043846FFF766FE042810D154
:1037D000144C20691026304320618820054314488A
:1037E00045803846FFF758FE052802D02169B143CD
:1037F0002161F0BDF0B507460B200E460004FFF72F
:103800004BFE042817D1074C20691025284320615E
:103810003E800B200004FFF73FFE05280BD02169F6
:10382000A94307E00020024023016745AB89EFCDA3
:1038300000F8FF1F2161F0BD0D48C0690004000EB3
:1038400070470B48006A7047094A0029116901D086
:10385000014300E0814311617047054A0146D26887
:1038600000200A4200D0012070470149C86070471B
:1038700000200240854910B5884208D14415012135
:103880002046FEF791FD00212046FEF78DFD10BD7C
:1038900030B5C3687E4A8C6813400A680D792243AC
:1038A000CC686D032C4322430C69496922430A43C7
:1038B0001A43C26030BD0021016001718160C160A6
:1038C0000161416170470029816801D0012200E057
:1038D0000222114381607047002A026901D00A4325
:1038E00000E08A43026170470122D2030029C168C7
:1038F00001D0114300E09143C1607047012292035F
:103900000029C16801D0114300E09143C1607047B4
:103910000122D2050029C16801D0114300E0914382
:10392000C16070470904114301627047C2681F23D8
:103930009B069A430A43C260704701229205002900
:10394000C16801D0114300E09143C160704701227A
:103950005049D2050028886801D0104300E0904308
:103960008860704701224B4992050028886801D081
:10397000104300E0904388607047012245491206D9
:103980000028886801D0104300E0904388607047A9
:10399000836A0B438362426170470122520300290C
:1039A000C16801D0114300E09143C160704701221A
:1039B00012040029C16801D0114300E09143C160A5
:1039C0007047012212030029C16801D0114300E0B1
:1039D0009143C1607047826800210123DB071A43CD
:1039E00082600F231B038268491CD20FD2079942C1
:1039F00001D0002AF7D18168002901DB006C7047F3
:103A000000207047816810221143816070478168EF
:103A10000422114381607047006C80B27047002916
:103A2000C16802D00122114301E049084900C16088
:103A30007047C26802239A43C260C2680A43C260E8
:103A40007047002A426801D00A4300E08A4342607E
:103A5000704702460020CB0104D5926801231B0663
:103A60009A4300E012680A4200D0012070470160CA
:103A7000704702465368002012680B400A4202D089
:103A8000002B00D0012070470160704700240140E6
:103A900003D2FFFF00270140324831490160002175
:103AA00041608160C16030494161704710B58379E0
:103AB0002C490268002B26D00B6893430B604A68A0
:103AC00003689A434A6002795218136804682343D2
:103AD00013608A6803689A438A60CA6803689A43D5
:103AE000CA604279102A05D051180A68006802435A
:103AF0000A6010BD8A6803681A438A60CA68006851
:103B00000243CA6010BD007940180168914301600A
:103B100010BD0021016001710C224271817170475A
:103B200010490A6902430A6170470E4A0146526908
:103B300000200A4200D0012070470A4948617047BE
:103B4000084A01461368002052690B400A4202D01D
:103B5000002B00D0012070470249486170470000E7
:103B60000000940F00040140FFFF6B00244801682F
:103B70008907890F016000218160C1600161416195
:103B8000816982151143816170471D4A1168890856
:103B90008900014311607047194A0029116801D05A
:103BA000014300E0814311607047154A0029116804
:103BB00001D0014300E08143116070478A07130F71
:103BC00010B50F229A408C080D49A40061188C682A
:103BD00094438C608A68984002438A6010BD08490B
:103BE0008A6902438A617047054900208969C905CD
:103BF00000D50120704702498A6902438A617047F3
:103C0000000001400D49086070470C49486070474A
:103C10000A498860704709490948086070470749A0
:103C2000086170470549074808607047034A014624
:103C3000D26800200A4200D00120704700300040C6
:103C4000AAAA0000CCCC0000F8B5042A2CD3830724
:103C500012D00B78491C0370401C521E83070BD0F6
:103C60000B78491C0370401C521E830704D00B784C
:103C7000491C0370401C521E8B079B0F05D0C91AAC
:103C8000DF002023DE1B08C90AE0FCF76BFAF8BD51
:103C90001D4608C9FD401C46B4402C4310C0121FED
:103CA000042AF5D2F308C91A521EF0D40B78491C25
:103CB0000370401C521EEAD40B78491C0370401C50
:103CC000012AE4D409780170F8BD01E004C0091F9D
:103CD0000429FBD28B0701D50280801CC90700D0C4
:103CE0000270704700290BD0C30702D00270401C3D
:103CF000491E022904D3830702D50280801C891E35
:103D0000E3E70022EEE70022DFE7002203098B420F
:103D10002CD3030A8B4211D300239C464EE003466A
:103D20000B433CD4002243088B4231D303098B421E
:103D30001CD3030A8B4201D394463FE0C3098B4254
:103D400001D3CB01C01A524183098B4201D38B01AD
:103D5000C01A524143098B4201D34B01C01A524150
:103D600003098B4201D30B01C01A5241C3088B4295
:103D700001D3CB00C01A524183088B4201D38B0080
:103D8000C01A524143088B4201D34B00C01A524122
:103D9000411A00D201465241104670475DE0CA0FF9
:103DA00000D04942031000D34042534000229C46B9
:103DB00003098B422DD3030A8B4212D3FC228901C3
:103DC00012BA030A8B420CD3890192118B4208D399
:103DD000890192118B4204D389013AD0921100E0FB
:103DE0008909C3098B4201D3CB01C01A524183090F
:103DF0008B4201D38B01C01A524143098B4201D33C
:103E00004B01C01A524103098B4201D30B01C01A66
:103E10005241C3088B4201D3CB00C01A52418308E0
:103E20008B4201D38B00C01A5241D9D243088B4236
:103E300001D34B00C01A5241411A00D201466346D9
:103E400052415B10104601D34042002B00D549423D
:103E5000704763465B1000D3404201B50020C04666
:103E6000C04602BD704770477047754600F024F8A1
:103E7000AE46050069465346C008C000854618B0E6
:103E800020B5FEF70BF860BC00274908B6460026AF
:103E9000C0C5C0C5C0C5C0C5C0C5C0C5C0C5C0C5FA
:103EA000403D49008D46704710B50446C046C046A7
:103EB0002046FCF750F910BD004870470409002067
:103EC00001491820ABBEFEE726000200704701053D
:103ED0001101643201010101120164320101010189
:103EE0001301643201010101140164320101010175
:103EF0001501643201010101160164320101010161
:103F00002101643201010101220164320101010138
:103F10002301643201010101240164320101010124
:103F20002501643201010101260164320101010110
:103F300031016432010101013201643201010101E8
:103F400033016432010101013401643201010101D4
:103F500035016432010101013601643201010101C0
:103F600011016432010101011201643201010101F8
:103F700013016432010101011401643201010101E4
:103F800015016432010101011601643201010101D0
:103F900021016432010101012201643201010101A8
:103FA0002301643201010101240164320101010194
:103FB0002501643201010101260164320101010180
:103FC0003101643201010101320164320101010158
:103FD0003301643201010101340164320101010144
:103FE0003501643201010101360164320101010130
:103FF0001101643201010101120164320101010168
:104000001301643201010101140164320101010153
:10401000150164320101010116016432010101013F
:104020002101643201010101220164320101010117
:104030002301643201010101240164320101010103
:1040400025016432010101012601643201010101EF
:1040500031016432010101013201643201010101C7
:1040600033016432010101013401643201010101B3
:10407000350164320101010136016432010101019F
:1040800028350000A440000800000020A400000023
:104090000401000848410008A4000020C40E0000EC
:1040A00020010008006CDC0200000000000000009D
:1040B00001020304060708090101010100000000D4
:1040C00000000000000000010000000000000000EF
:1040D00000000000000000000000000000000000E0
:1040E000000000000000FFFF0000000000000000D2
:1040F00000000000000000000000000000000000C0
:1041000000000000000000000000000000000000AF
:10411000000000000000000000000000000001009E
:10412000000000000000000000000000000000008F
:104130000000000000000000000000000102030475
:0841400001020304060708094F
:0400000508001E8948
:00000001FF
